:020000040800F2
:10000000B00B0020F91B00089504000897040008B5
:100010009B0400089F040008A304000800000000DF
:10002000000000000000000000000000A70400081D
:10003000A904000800000000AB040008AD0400089B
:10004000131C0008131C0008131C0008131C0008D4
:10005000131C0008131C0008131C0008131C0008C4
:10006000131C0008131C0008131C0008131C0008B4
:10007000131C0008131C0008131C0008131C0008A4
:10008000131C0008131C0008131C0008131C000894
:10009000131C0008131C0008131C0008131C000884
:1000A000131C0008131C0008131C0008131C000874
:1000B000131C0008131C0008131C0008131C000864
:1000C000131C0008131C0008131C0008131C000854
:1000D000131C00082B0D0008DD0B0008131C000882
:1000E000131C0008131C0008131C0008131C000834
:1000F000131C0008131C0008131C0008131C000824
:10010000131C0008131C0008131C0008131C000813
:10011000131C0008131C0008131C0008131C000803
:10012000131C0008131C0008131C0008131C0008F3
:10013000DFF80CD002F020F9004800474B0200081D
:10014000B00B00202DE9F0479EB08649D1F85E0043
:1001500001F048FE81468349D1F8DF0001F042FEFC
:1001600082468048D0F85E007F49B0FBF1F6304609
:1001700001F03DFE044600227C4B01F06DFE0ED3E3
:100180007848D0F8DF007849B0FBF1F6304601F04E
:100190002EFE04460022754B01F05EFE02D274A0D2
:1001A00000F027FE7449484601F0DCFD8146044614
:1001B00001F03EFE05460E466F49504601F0D2FD65
:1001C0008246044601F034FE6C4A8DE863006CA15F
:1001D00005A802F015F905A800F00BFE6148E33010
:1001E0006049D1F8F710CDE90010E338D0F8DA20F3
:1001F00000F1C6036EA105A802F002F905A800F0FF
:10020000F8FD5848623000F0F4FD41F2883000F00B
:10021000C6F91EB0BDE8F08708B50121082001F03D
:100220007FFA4FF40050ADF8000010208DF8030065
:1002300003208DF802006946624800F0BFFF4FF4CA
:100240000051604801F067F808BD00F072FC00F052
:10025000B0FC00F018FD00F055FDFFF7DDFF4FF496
:100260000051584801F057F84FF40051554801F03B
:1002700050F842F2107000F092F94FF400515148DA
:1002800001F049F809E050A000F0EAFC41F28830A2
:1002900000F085F901204E4908704D48007800288B
:1002A000F1D01A214B4801F0DFFB09E04AA000F031
:1002B000D7FC41F2883000F072F9012049490870FA
:1002C000484800780028F1D047A000F0C9FC41F26E
:1002D000883000F064F949A000F0C2FC41F2883097
:1002E00000F05DF94CA000F0BBFC41F2883000F05A
:1002F00056F94DA000F0B4FC41F2883000F04FF9FF
:100300004FA000F0ADFC41F2883000F048F953A056
:1003100000F0A6FC42F2107000F041F9174800F01E
:1003200027FD164800F065FD1BE0574800780128BE
:1003300010D1002404E05548005D55490855641C5F
:10034000FF2CF8DD0020504908705149054800F0A5
:100350009BFB00BF034890F8FE00032801D1FFF784
:10036000F1FEE2E7AC010020A086010000807640AB
:100370004552524F520000000050C3474800002031
:100380007B22494D4549223A22252E313573222CB4
:10039000226C6E67223A22252E3566222C226C6151
:1003A00074223A22252E3566227D0D0A00000000B7
:1003B0006C61743A252E2A732C6C6F6E3A252E2AA6
:1003C00073000000000C014041540D0A00000000C1
:1003D0001C0000200038014041542B434F50533F34
:1003E0000D0A00001D00002041542B4347434C419F
:1003F00053533D2242220D0A0000000041542B437A
:100400004744434F4E543D312C224950222C224325
:100410004D4E4554220D0A0041542B43474154543C
:100420003D310D0A0000000041542B434950435315
:1004300047503D312C22434D4E4554220D0A0000B9
:1004400041542B434C504F52543D22544350222C84
:100450002232323232220D0A0000000041542B4376
:10046000495053544152543D22544350222C22317E
:1004700032302E32352E3231382E3932222C22397A
:10048000393139220D0A000009000020AB0200209A
:10049000AC000020704700BFFEE700BFFEE700BFD2
:1004A000FEE700BFFEE770477047704710B500F0E9
:1004B00094F810BD30B50146B1F1807F01D3012021
:1004C00030BD21F07F40401E4FF0E02250615017B8
:1004D0000F22002807DA13071D0E444B00F00F040B
:1004E000241F1D5503E013071C0E414B1C5400BF75
:1004F00000204FF0E0229061072010610020DFE72C
:1005000010B500BF3B4800683B49B0FBF1F4204602
:10051000FFF7D0FF0028F5D14FF0E020006920F070
:1005200001004FF0E021086110BD70B5044600BF26
:10053000304800680A21B0FBF1F52846FFF7BAFF02
:100540000028F5D12D4804604FF0E020006940F00C
:1005500001004FF0E021086100BF28480068002832
:10056000FBD170BD70B5044600BF22480068224927
:10057000B0FBF1F52846FFF79DFF0028F5D11F4895
:1005800004604FF0E020006940F001004FF0E021EE
:10059000086100BF194800680028FBD170BD70B524
:1005A000044600BF134800684FF47A71B0FBF1F5C0
:1005B0002846FFF77FFF0028F4D1104804604FF071
:1005C000E020006940F001004FF0E021086100BF29
:1005D0000A4800680028FBD170BD0848006820B1B7
:1005E00006480068401E05490860704718ED00E0A5
:1005F00000E400E02000002040420F000000002046
:1006000070B506460C46FBA1204601F007FB0546E7
:1006100070BD10B50246012000E050430B00A1F16F
:100620000104E1B2F9D110BD2DE9F34F81B00746C5
:100630003C4600200090834681460026804628E004
:1006400020782D2802D148F00208641C20782C283C
:1006500002D020782A2800D11CE020782E2803D14F
:1006600048F00108641C09E02078392802DC207871
:10067000302803DA4FF0000900260BE018F0010FD4
:1006800002D0701CC6B203E009F1010000F0FF09BE
:10069000641CD5E700BF18F0020F00D07F1C0025B6
:1006A0000EE0A9F10100401BC1B20A20FFF7B1FF23
:1006B000795D3039009A00FB01200090681CC5B2BA
:1006C0004D45EEDB052E00DD05260298067000255F
:1006D0000EE0701E401BC1B20A20FFF79AFF09F11D
:1006E00001012944795C303900FB01BB681CC5B2AB
:1006F000B542EEDB31460A20FFF78BFF009901FB84
:1007000000BA18F0020F01D0CAF1000A5046BDE845
:10071000FE8F0246134610E010782A2805D0107884
:10072000202802DB10787A2801DDFF20704710783E
:100730002C2801D1481EC1B2521C0029ECD1D01A7C
:10074000C0B2F3E7F8B504460D46ACA1284601F067
:1007500065FA064602213046FFF7DBFF0746FF2F0A
:1007600005D0F0196946FFF75FFF84F8FE00F8BD79
:100770002DE9F34F95B004460026B1460025A1A10E
:10078000169801F04BFA8046C34600BF77E01BF88D
:1007900009002C2803D108A840F82690761C042EC6
:1007A00031D1002520E0B01E08A951F820002844CE
:1007B000401C1BF8001004F1C6004155405D2E2876
:1007C00011D1012D0FDD681E04F1C601095C04F191
:1007D000C6004155A81E04F1C6010A5C681E0A54F1
:1007E0002E22A81E0A546D1C701E08A951F8201054
:1007F000B01E08AA52F82000081A401EA842D2D8FB
:10080000681CC4F8DA00062E31D1002520E0B01EA5
:1008100008A951F820002844401C1BF8001004F1DE
:10082000E3004155405D2E2811D1012D0FDD681EDA
:1008300004F1E301095C04F1E3004155A81E04F151
:10084000E3010A5C681E0A542E22A81E0A546D1C7D
:10085000701E08A951F82010B01E08AA52F82000F6
:10086000081A401EA842D2D8681CC4F8F7001BF82A
:10087000091004F1620000F8091009F10109062EBF
:1008800002D2B9F1460F82DB002184F8C5100321A2
:100890004046FFF73EFF0746FF2F45D008EB070015
:1008A00014A9FFF7C1FE82469DF85000801CC1B21A
:1008B0000A20FFF7AEFEBAFBF0F044F85E0F9DF899
:1008C0005000801CC1B20A20FFF7A3FEBAFBF0F172
:1008D00000FB11A0069001F085FA07909DF85000EA
:1008E000C0F10500C1B20A20FFF793FE019001F0AC
:1008F00079FA0290079901F0FFF94449039001F059
:1009000031FA052105900A20FFF783FE216848434C
:10091000039001F067FA0490059901F095F90690AB
:1009200001F072FA44F85E0904214046FFF7F1FE37
:100930000746FF2F03D018F8070084F8DE000521D2
:100940004046FFF7E6FE0746FF2F45D008EB0700BD
:1009500014A9FFF769FE82469DF85000801CC1B2C1
:100960000A20FFF756FEBAFBF0F044F8DF0F9DF8BF
:100970005000801CC1B20A20FFF74BFEBAFBF0F119
:1009800000FB11A0069001F02DFA07909DF8500091
:10099000C0F10500C1B20A20FFF73BFE019001F053
:1009A00021FA0290079901F0A7F91849039001F084
:1009B000D9F9052105900A20FFF72BFE216848434D
:1009C000039001F00FFA0490059901F03DF90690AB
:1009D00001F01AFA44F8DF0906214046FFF799FEB4
:1009E0000746FF2F03D018F8070084F8FB0017B064
:1009F000BDE8F08F4750474C4C000000244750475B
:100A0000534100004750524D430000000000704227
:100A1000F8B505460F4635A1384601F0FFF8064601
:100A200006213046FFF775FE0446FF2C05D030192D
:100A30006946FFF7F9FD85F8FC0007213046FFF70E
:100A400068FE0446FF2C05D030196946FFF7ECFD1F
:100A500085F8FD00F8BD2DE9F84304460D46A8468B
:100A600024A1404601F0DAF8064603213046FFF79C
:100A700050FE0746FF2F05D0F0196946FFF7D4FD59
:100A800084F85D00BDE8F88370B505460C4619A1F1
:100A9000204601F0C3F818B121462846FFF7DBFFD6
:100AA00012A1204601F0BAF818B121462846FFF7F6
:100AB000AFFF12A1204601F0B1F818B12146284637
:100AC000FFF756FEAFF2CC01204601F0A7F818B1AF
:100AD00021462846FFF736FE0AA1204601F09EF87F
:100AE00018B121462846FFF78BFD70BD24475047BB
:100AF00047410000244750475356000024475052B6
:100B00004D430000244750474C4C000010B50446AC
:100B10000BE000BF40214C4801F014F80028F9D048
:100B20002178494800F0A0FF641C20780028F0D10B
:100B300010BD00B585B00121042000F0F1FD0121B8
:100B4000480400F0FAFD0420ADF8100018208DF8DC
:100B5000130003208DF8120004A93C4800F02EFB7E
:100B60000820ADF8100004208DF8130004A93748C0
:100B700000F024FB4FF4165000900020ADF8040064
:100B8000ADF80600ADF80800ADF80C000C20ADF88B
:100B90000A0069462C4800F06EFE012240F2255101
:100BA000294800F000FF0121274800F0F0FE05B0C1
:100BB00000BD08B54FF4E06000F032FA26208DF851
:100BC000000001208DF8010000208DF802000120B6
:100BD0008DF80300684600F028FA08BD10B540F211
:100BE0002551194800F0C4FF58B31948007801286E
:100BF00004D11548001D0088C4B210BD1248001D64
:100C00000088C4B2242C05D10120124908700020AC
:100C1000114908600F480078012812D10F480E4989
:100C2000096844540C480068401C0B4908600A2CB1
:100C300007D10120064908700020074908600549CE
:100C4000087000BFD9E700000044004000080140E0
:100C5000090000200800002004000020AB02002052
:100C600010B504460BE000BF40216C4800F06AFF5D
:100C70000028F9D02178694800F0F6FE641C20783D
:100C80000028F0D110BD00B585B0012144F2040068
:100C900000F046FD4FF40070ADF8100018208DF8FC
:100CA000130003208DF8120004A95D4800F086FAB5
:100CB0004FF48060ADF8100004208DF8130004A9F3
:100CC000574800F07BFA4FF4165000900020ADF822
:100CD0000400ADF80600ADF80800ADF80C000C20DB
:100CE000ADF80A0069464D4800F0C5FD012240F20A
:100CF00025514A4800F057FE0121484800F047FEC0
:100D000005B000BD08B54FF4E06000F089F925207A
:100D10008DF8000001208DF801008DF802008DF89B
:100D20000300684600F081F908BD10B540F2255176
:100D30003A4800F01DFFD0B13848001D0088C4B209
:100D400038483949096844540A2C04D137480068A6
:100D5000401C3649086034480068401C324908602D
:100D600008460068FF2802D908460078086010BDD0
:100D700070B59AB005460026002400202A49086074
:100D8000084600682A4908601A21244800F06CFED1
:100D90000020254908602649086026A0FFF760FF6B
:100DA0004FF4FA70FFF7FBFB00BF04E01D48005D45
:100DB00001A90855641C1C4800688442F6D320A190
:100DC00001A801F01DFB002085F8630000240CE061
:100DD00001A8005D302807DD01A8005D392803DA8D
:100DE00001A8005DA855761C641C632CF0D31AB0D2
:100DF00070BD10B5044614A0FFF732FF4FF44870E1
:100E0000FFF7CDFB2046FFF72BFF1A21034800F028
:100E10002BFE4FF47A70FFF7C2FB10BD0038014083
:100E200000080140AB060020100000201400002044
:100E30001800002041542B47534E0D0A00000000BB
:100E40006C656E3A0000000041542B4349505345F5
:100E50004E440D0D0000000000210020674A12687A
:100E600042F48032654B1A6000BF644A126802F493
:100E70000030491C10B9B1F5A06FF6D15F4A126875
:100E800012F4003F01D0012000E00020012842D1EF
:100E90005B4A126842F01002594B1A601A461268F7
:100EA00022F003021A601A46126842F002021A6027
:100EB000524A5268514B5A601A4652685A601A4652
:100EC000526842F480625A601A46526822F47C12D8
:100ED0005A601A46526842F4E8125A601A4612687A
:100EE00042F080721A6000BF444A126812F0007F1C
:100EF000FAD0424A526822F00302404B5A601A4626
:100F0000526842F002025A6000BF3C4A526802F046
:100F10000C02082AF9D1704710B5FFF79DFF10BDEC
:100F200010B53648006840F00100344908600846B2
:100F300040683449084031494860084600683249F1
:100F400008402E4908600846006820F480200860A8
:100F50000846406820F4FE0048604FF41F00886097
:100F6000FFF7DAFF4FF000602849086010BD10B5A8
:100F7000002100200022214B5B6803F00C0121B10D
:100F8000042906D0082928D107E0214B214C2360F1
:100F900027E01F4B1F4C236023E0184B5B6803F4D2
:100FA0007010164B5B6803F48032022303EB904011
:100FB00022B9194B4343174C23600DE00F4B5B687C
:100FC00013F4003F04D0144B4343124C236003E05E
:100FD0000F4B43430F4C236003E00D4B0D4C23603C
:100FE00000BF00BF054B5B68C3F303130B4CE15C10
:100FF000084B1B68CB40074C236010BD001002401B
:10100000002002400000FFF8FFFFF6FE08ED00E0C0
:1010100000127A002000002000093D00240000207A
:1010200031490143314A1160704770B500210023F6
:101030000F22C4780CB32D4C246804F4E064C4F58A
:10104000E064210AC1F10403CA40447804FA03F1C0
:101050008478144021430901254C0678A155047871
:1010600004F01F050124AC4005786D114FF0E02617
:1010700006EB8505C5F8004109E0047804F01F057A
:101080000124AC401B4D0678761145F8264070BD12
:10109000194A0A400243154B1B1F1A60704739B1A9
:1010A000124A121D12680243104B1B1D1A6006E003
:1010B0000E4A121D126882430C4B1B1D1A607047AA
:1010C000042808D14FF0E021096941F004014FF0F4
:1010D000E022116107E04FF0E021096921F00401ED
:1010E0004FF0E022116170470000FA050CED00E0BE
:1010F00000E400E080E100E080FFFF1F10B504463F
:10110000CA48844208D10121042000F023FB0021B9
:10111000042000F01FFB46E0C548844208D10121AD
:10112000082000F017FB0021082000F013FB3AE034
:10113000C048844208D10121102000F00BFB00219F
:10114000102000F007FB2EE0BB48844208D10121AB
:10115000202000F0FFFA0021202000F0FBFA22E01E
:10116000B648844208D10121402000F0F3FA002162
:10117000402000F0EFFA16E0B148844208D1012186
:10118000802000F0E7FA0021802000F0E3FA0AE076
:10119000AC48844207D10121801500F0DBFA002120
:1011A000A01500F0D7FA10BD10B50121084600F0D7
:1011B000D1FA0021012000F0CDFA10BD2DE9F04157
:1011C000024600250026002000230024002791F875
:1011D00003C00CF00F0591F803C01CF0100F03D0F2
:1011E00091F802C04CEA050591F800C0BCF1000F6F
:1011F00031D0146800202BE04FF0010C0CFA00F302
:10120000B1F800C00CEA03069E4220D183004FF0E3
:101210000F0C0CFA03F7BC4305FA03FC4CEA040478
:1012200091F803C0BCF1280F06D14FF0010C0CFA65
:1012300000FCC2F814C00AE091F803C0BCF1480FEA
:1012400005D14FF0010C0CFA00FCC2F810C0401C94
:101250000828D1D31460B1F800C0BCF1FF0F34DD11
:10126000546800202EE000F1080C4FF0010808FA45
:101270000CF3B1F800C00CEA03069E4221D18300B2
:101280004FF00F0C0CFA03F7BC4305FA03FC4CEAD1
:10129000040491F803C0BCF1280F05D100F1080C3B
:1012A00008FA0CF8C2F8148091F803C0BCF1480F9A
:1012B00007D100F1080C4FF0010808FA0CF8C2F849
:1012C0001080401C0828CED35460BDE8F0814FF652
:1012D000FF710180022181700421C17070470246B4
:1012E000002093680B4201D0012000E000207047ED
:1012F0000146886880B2704702460020D3680B42DE
:1013000001D0012000E0002070470146C86880B28B
:10131000704701617047416170470AB1016100E0A7
:1013200041617047C16070474FF480320A43826167
:101330008161826182698269704702460020424B66
:1013400018684FF68073184040EA021008433E4B7D
:10135000186070473D49C8617047F0B50A460023E0
:1013600000240021002500F00046B6F1004F02D114
:10137000354EF16901E0344E7168C0F3034583B224
:1013800000F44016B6F5401F08D121F070612E4ED2
:10139000766826F070662C4F7E6012E000F48016AE
:1013A000B6F5801F06D1032606FA05F4A14341F0E5
:1013B000706106E0460D360103FA06F6B14341F0CE
:1013C000706122B1460D360103FA06F6314300F092
:1013D0000046B6F1004F02D11B4EF16101E01A4EFA
:1013E0007160F0BD30B500228B071C0F0F2303FA8C
:1013F00004F2154B08338C1053F824309343124CED
:1014000008348D1044F8253023468C1053F82430CE
:101410008C07240F00FA04F423430B4C08348D107E
:1014200044F8253030BD0A49086070470008014083
:10143000000C014000100140001401400018014060
:10144000001C01400020014000000140000020423B
:10145000DC002042DB48006840F00100D949086008
:1014600008464068D8490840D649486008460068A0
:10147000D6490840D34908600846006820F4802017
:1014800008600846406820F4FE0048604FF41F00E2
:1014900088607047CB49096821F48031C94A1160DE
:1014A0001146096821F480211160B0F5803F03D016
:1014B000B0F5802F0ED106E0C249096841F48031B1
:1014C000C04A116007E0BF49096841F4A021BD4A44
:1014D000116000E000BF00BF704710B50146002258
:1014E000002300204A11012A02D1B64C236806E0ED
:1014F000022A02D1B34C236A01E0B24C636A01F0C4
:101500001F02012494401C4201D0012000E0002071
:1015100010BD70B500240025002600BF3120FFF764
:10152000DCFF0646641CB4F5A06F01D0002EF5D098
:101530003120FFF7D2FF08B1012500E00025284641
:1015400070BD014600209F4A106820F0F80040EA74
:10155000C100106070479E49086070470246002035
:10156000984B586820F47C1042EA01031843954BCD
:101570005860704796490866704701460020914AB6
:10158000506820F003000843506070478D48406861
:1015900000F00C007047014600208A4A506820F095
:1015A000F00008435060704701460020854A5068AB
:1015B00020F4E06008435060704701460020814AF3
:1015C000506820F4605040EAC1005060704729B173
:1015D0007C4A527A02437B4B5A7204E0794A527A2F
:1015E0008243784B5A7270477A49086070470146C7
:1015F0000020744A506820F440400843506070470F
:101600000021754A11706F4A82F82010012802D01B
:10161000042808D103E001216F4A117004E005217C
:101620006D4A117000E000BF00BF70476B49086051
:1016300070476449096A0143624A11627047674909
:1016400044390860704730B500210022002400238F
:101650005C4D6D6805F00C0121B1042905D0082905
:1016600023D105E05E4D056022E05D4D05601FE081
:10167000544D6D6805F47012524D6D6805F4803458
:10168000022505EB92421CB9564D554305600BE00F
:101690004C4D6D6815F4003F03D0524D5543056025
:1016A00002E04F4D5543056002E04D4D056000BF1F
:1016B00000BF444D6D6805F0F00109094A4D6B5CAF
:1016C0000568DD4045603F4D6D6805F4E061090A3D
:1016D000454D6B5C4568DD4085603A4D6D6805F4AD
:1016E0006051C90A404D6B5C4568DD40C560354DB1
:1016F0006D6805F44041890B3C4D6B5CC568B5FBDA
:10170000F3F5056130BD29B12E4A526902432D4BD4
:101710005A6104E02B4A526982432A4B5A6170474E
:1017200029B1284A92690243264B9A6104E0254A6E
:1017300092698243234B9A61704729B1214AD26949
:101740000243204BDA6104E01E4AD26982431D4BFA
:10175000DA61704729B11B4AD2680243194BDA603B
:1017600004E0184AD2688243164BDA60704729B108
:10177000144A12690243134B1A6104E0114A1269B8
:101780008243104B1A617047144940390860704712
:101790000F49C86470470B49C87170470948406ACF
:1017A00040F0807007494862704701460020054AB2
:1017B00092680A4201D0012000E0002070470149F0
:1017C00088727047001002400000FFF8FFFFF6FE2D
:1017D00000004242D80042422010024080044242AF
:1017E00000127A0000093D0034000020440000206F
:1017F00010B50446FB48844209D101218803FFF754
:10180000A9FF00214FF48040FFF7A4FF32E0F64823
:10181000844209D101214804FFF7A9FF00214FF4B8
:101820000030FFF7A4FF25E0F048844209D10121F0
:101830008804FFF79CFF00214FF48020FFF797FFFB
:1018400018E0EB48844209D10121C804FFF78FFF5B
:1018500000214FF40020FFF78AFF0BE0E5488442A7
:1018600008D101210805FFF782FF00214FF4801005
:10187000FFF77DFF10BD2DE9F04786B005460E4607
:101880000024A24600BFA1460027B08900B100BFD6
:101890002F462C8A4CF6FF700440F08804432C82BB
:1018A000AC894EF6F3100440B08831890843718941
:1018B00008430443AC81AC8A4FF6FF400440B08932
:1018C0000443AC8201A8FFF7BEFEC648874202D19E
:1018D000DDF810A001E0DDF80CA0A88910F4004F9D
:1018E00008D00AEBCA0000EB0A1031684900B0FBCF
:1018F000F1F807E00AEBCA0000EB0A103168890032
:10190000B0FBF1F86420B8FBF0F004012009642179
:1019100001FB1089A88910F4004F08D0322000EB99
:10192000C900B0FBF1F000F00700044308E03220EA
:1019300000EB09106421B0FBF1F000F00F0004434C
:101940002C8106B0BDE8F0874FF4165101600021EC
:101950008180C18001810C214181002181817047FA
:1019600010B502460020108A4FF2FF0318400B8882
:101970004C8823438C882343CC882343184310820C
:1019800010BD0021018041808180C180704721B15C
:10199000828942F40052828104E082894DF6FF730D
:1019A0001A4082817047F0B50346002400260025C6
:1019B0000020A1F510676A3F00D100BF1846C1F3AF
:1019C000421401F01F06012707FA06F5012C01D188
:1019D0000C3004E0022C01D1103000E014301AB1B8
:1019E00007682F43076002E00768AF430760F0BD58
:1019F0001AB1838A0B43838202E0838A8B438382FA
:101A00007047028A4FF6F0731A400282028A0A4334
:101A10000282704782894FF2FF731A408281828965
:101A20000A438281704721B1828942F00202828199
:101A300004E082894FF6FD731A4082817047028A62
:101A40004FF6DF731A400282028A0A43028270470D
:101A500021B1028A42F48042028204E0028A4BF6FB
:101A6000FF731A4002827047C1F3080282807047F8
:101A700001468888C0F308007047818941F0010160
:101A800081817047028BD2B20283028B42EA01222B
:101A900002837047028B02F47F420283028B0A4367
:101AA0000283704721B1828A42F02002828204E0E0
:101AB000828A4FF6DF731A408282704721B1828A90
:101AC00042F01002828204E0828A4FF6EF731A40DD
:101AD0008282704721B1828A42F00802828204E049
:101AE000828A4FF6F7731A408282704721B1828949
:101AF00042F40042828103E08289C2F30E028281B5
:101B0000704721B1828A42F40062828204E0828AB4
:101B10004FF2FF731A4082827047828A4FF6FB733E
:101B20001A408282828A0A438282704721B1828A65
:101B300042F00202828204E0828A4FF6FD731A406C
:101B40008282704702460020B1F5007F00D100BFBD
:101B500013880B4201D0012000E00020704701F4FF
:101B60000072B2F5007F00D100BFCA430280704707
:101B700070B502460024002300250020A1F5106660
:101B80006A3E00D100BFC1F3421501F01F030126D8
:101B900006FA03F3012D02D19689334006E0022DA7
:101BA00002D1168A334001E0968A33400C12012696
:101BB00006FA04F41688344013B10CB1012000E099
:101BC000002070BD10B500220023A1F510646A3C0E
:101BD00000D100BF0A1201249440A3B2DC43048068
:101BE00010BD0000003801400044004000480040A3
:101BF000004C00400050004006488047064800471F
:101C0000FEE7FEE7FEE7FEE7FEE7FEE7FEE7FEE7AC
:101C1000FEE7FEE7210F00083101000830B50EE0B5
:101C200003460A4601E05B1C521C1C781578AC4246
:101C300001D1002CF7D115F0FF0F04D0401C027821
:101C4000002AEDD1002030BDF0B480EA0102D40FAB
:101C50004200B2EB410F02D20246084611464A004A
:101C600042D0C30DDDB2C1F3C752AD1A202D35DA13
:101C7000C1F3160141F4000204B15242C5F120063D
:101C800002FA06F12A411044B3EBD05F23D0C4B16D
:101C9000012DA0EBC35009DCF0BC4FF0004202EA7A
:101CA000C35200F50000DBB200F03AB9400000F189
:101CB000807000EBC350A0F1807040EAD170490001
:101CC00009E0490841EAC071A0EBC35000F50000EB
:101CD000400800EBC350F0BC00F019B9614201228A
:101CE00002EB4101001BF6E7F0BC704781F00041B8
:101CF000AAE780F00040A7E780EA010210B502F0F1
:101D00000043400026D04A0023D04FEA106101EB87
:101D10001261C0F35600C2F3560240F4000042F4D0
:101D20000002A0FB0220A1F17F014FEA0040140451
:101D300001D000F1010050EA124001D44000491ED8
:101D4000C2B20C0604EBD010401C4008802A02D01E
:101D500003E0002010BD20F00100002900DA00207F
:101D6000184310BD30B480EA010202F0004530F0A3
:101D7000004221F0004015D0A0B1C0F3C753C2F318
:101D8000C754C2F31601C0F31600E41A41F400016F
:101D900040F400027D34914201D3641C00E049000C
:101DA000002C02DA30BC002070474FF40000002302
:101DB000914201D3891A034340084FEA4101F7D108
:101DC00051B1914202D14FF0004105E002D24FF0F3
:101DD000010101E06FF0010103EBC450284430BC65
:101DE00000F095B896230022114600F099B80EB580
:101DF00040F2334102910021CDE900110A460B4621
:101E000000F0C8F803B000BD20F00040C10DC0F3E1
:101E1000160040F400007F2901DA0020704796295F
:101E200003DCC1F19601C84070479639884070477D
:101E300000F0004230F000400AD0C10D01F56071A1
:101E4000C0F3160042EA0151C2084007114370472F
:101E5000002001467047000030B5002904DB4FF038
:101E60000044404264EB0101002B04DB4FF00044CE
:101E7000524264EB0303994208BF904230BD000018
:101E800030B50B46014600202022012409E021FA4A
:101E900002F59D4205D303FA02F5491B04FA02F547
:101EA0002844151EA2F10102F1DC30BD2DE9F05FDE
:101EB0000546002092469B468846064681464024B9
:101EC0001BE0284641464746224600F076FA534634
:101ED0005A46C01A914110D311461846224600F0C6
:101EE0005DFA2D1A67EB01084F46224601200021BA
:101EF00000F054FA17EB00094E41201EA4F1010432
:101F0000DFDC484631462A464346BDE8F09F0029BB
:101F1000A8BF7047401C490008BF20F0010070476F
:101F200010B4B0FA80FC00FA0CF050EA010404BFCF
:101F300010BC704749B1CCF1200421FA04F411FA25
:101F40000CF118BF012121430843A3EB0C01CB1D69
:101F50000106000A002BBEBF002010BC704700EB3A
:101F6000C35010440029A4BF10BC7047401C490056
:101F700008BF20F0010010BC704710B5002B08DA34
:101F8000401C41F1000192185B411A4301D120F03D
:101F9000010010BD2DE9F04D92469B4611B1B1FAFA
:101FA00081F202E0B0FA80F22032904600F0F6F9B9
:101FB00004460F4640EA0A0041EA0B0153465A46DE
:101FC000084303D120463946BDE8F08D114653EA57
:101FD000010015D0C8F14002504600F0EEF9054668
:101FE0000E4650465946424600F0D8F9084301D003
:101FF000012000E00020054346EAE0762C43374309
:102000000A984FEA4453A0EB08004FEAD4240A3060
:102010004FF0000244EA47544FEAD72502D500208A
:102020000146D1E7010510196941DDE908450019AC
:102030006941BDE8F04DA0E72DE9FE4F804681EAF9
:102040000300C00F0C46009021F0004123F0004532
:10205000B8EB0200A94105D24046214690461C46F5
:102060000B46024623F00040104304D1404621466F
:1020700003B0BDE8F08F270DC7F30A00C3F30A5180
:102080000290401A0190402866DAC3F3130040F42E
:10209000801B0098924620B10023D2EB030A63EB29
:1020A0000B0B01985946C0F14002504600F076F9FA
:1020B00006460D4650465946019A00F08EF910EB3F
:1020C00008006141002487EA115284EAE7731A4349
:1020D0003BD0009A3AB3019A012A4FEA075210DC2A
:1020E000001B61EB02014FF0004202EA0752CDE90A
:1020F0000042001C41F5801132462B46FFF74AFF93
:10210000B6E7001B61EB0201001C41F580130018CB
:102110005B412018A2F5001747EB030140EAD57098
:10212000B6196D4111E06D084FEA360645EAC075F3
:102130004FEA0752001B61EB0201001C41F58011C0
:1021400049084FEA30000019514132462B4603B08E
:10215000BDE8F04FFFF711BF0098012240000023B7
:10216000D0EB020263EBE073009821464FEAE07483
:10217000B8EB000061EB0401E9E783F000435BE7A3
:1021800081F0004158E72DE9FE4F81EA030404F095
:10219000004421F0004100944FF0000B23F0004375
:1021A00050EA010402D052EA030404D1002001469F
:1021B00003B0BDE8F08FC3F30A54C1F30A552C44B1
:1021C000A4F2F3340194A0FB0254C1F3130141F4CF
:1021D0008011C3F3130343F4801301FB024400FB9B
:1021E000034E840A970A44EA815447EA8357A4FBC2
:1021F000076802958D0A05FB07854FEA932C04FBBF
:102200000C542705029D4FEA065847EA1637B5EBEE
:1022100008056EEB070C870E920E47EA811742EA1B
:102220008312A7FB0201B6EB0B0164EB00042B0D3C
:1022300043EA0C335E1844EB1C50DA465146E7FB88
:102240000201C5F313044FEA0B3343EA14534FEA78
:102250000432019C43EA0603A4F10C040294009C9E
:10226000CDE900B4FFF796FEA2E72DE9F04D81EA33
:10227000030404F0004B21F0004514464FF0000A1F
:1022800023F0004150EA050220D054EA01021DD09B
:10229000C5F30A570246C5F31303C1F31300C1F394
:1022A0000A5640F4801543F48013A7EB0608101B70
:1022B000D64608F2FD3873EB050002D308F1010899
:1022C00001E092185B41B8F1000F03DA00200146EB
:1022D000BDE8F08D00204FF48011064684460EE0E4
:1022E000171B73EB050705D3121B63EB05030643AE
:1022F0004CEA010C49084FEA300092185B4150EA61
:102300000107EDD152EA030012D082EA040083EA09
:102310000501084303D100224FF0004308E0101BE1
:10232000AB4102D20122002302E06FF00102531000
:102330001AEB06004CEB085110EB0A0041EB0B01C5
:10234000BDE8F04DFFF719BEC1F30A52C1F3130106
:1023500040F2FF3341F480119A4202DA0020014634
:10236000704740F233439A42A2F2334202DC5242B7
:1023700000F023B800F012B8064C074D06E0E06804
:1023800040F0010394E8070098471034AC42F6D3BC
:10239000FDF7D2FEF42C0008142D0008202A04DBDF
:1023A000203A00FA02F1002070479140C2F1200368
:1023B00020FA03F3194390407047202A04DB203AA7
:1023C00021FA02F00021704721FA02F3D040C2F155
:1023D00020029140084319467047202A06DBCB179C
:1023E000203A41FA02F043EAE07306E041FA02F3D0
:1023F000D040C2F1200291400843194670470000C6
:102400000FB4084B10B504A902AA039800F0CAF84B
:10241000044602A9002000F068FC204610BC5DF8CC
:1024200014FB0000EB2C000802E008C8121F08C1D2
:10243000002AFAD170477047002001E001C1121F45
:10244000002AFBD1704700002DE9FF5FDDE9022083
:10245000010DDDF838B0024310D10F9801244CA2D1
:10246000012808D0002100980F9BC0E90021C0E995
:102470000243BDE8FF9F6FEA0B01F4E7A1F2FF31D1
:1024800044F6105041430D140F9801280ED0A5EBCF
:102490000B00401C4FF000043E4EDFF8FC90B0F102
:1024A000000AA04605DACAF1000717E0CBF10000E8
:1024B000F0E7074612E0F80707D0224633464046C9
:1024C0004946FFF760FE804689462246334610465D
:1024D0001946FFF758FE04460E467F10002FEAD13A
:1024E000DDE90201BAF1000F42464B4602DAFFF77E
:1024F0004AFE01E0FFF7B9FE04460E460022274BD4
:10250000FFF7AAFC03D84FF0FF30014607E0002296
:10251000234B20463146FFF78FFDFFF715FF1024B0
:1025200009E0002C0ADB0A220023FFF7BFFC019B15
:1025300030321A55641E50EA0102F2D1641C019A2D
:10254000C4F1110314440F9A012A09D0012208434F
:1025500001D15B450FDD4FF0000205F101050DE0F3
:10256000084303D1A3EB0B056D1E09E000204FF0DB
:10257000110B0F9088E701DA00226D1E002A83D02C
:1025800000980F99C0E90231C0E9004571E70000E9
:1025900030000000000024400000F03F0000F04345
:1025A0000000E03F2DE9FF4F95B09B468946064667
:1025B000002512E2252878D10024761CF94A274606
:1025C000012105943378203B01FA03F0104202D038
:1025D0000443761CF6E730782A2811D06FF02F03D9
:1025E0003078A0F13002092A16D8059A44F0020486
:1025F00002EB820203EB42021044761C0590EFE7E7
:1026000059F8042B0592002A03DA504244F400548E
:10261000059044F00204761C30782E2816D116F866
:10262000010F44F004042A280DD06FF02F023078F7
:10263000A0F13003092B09D807EB870302EB430312
:10264000C718761CF3E759F8047B761C30786C28A1
:102650000FD006DC4C2817D068280DD06A2814D17A
:1026600004E0742810D07A280FD10DE044F400144F
:102670000AE044F4801401E044F440147278824289
:1026800002D1761C04F58014761C307866280BD0B5
:1026900013DC582877D009DC002875D04528F6D0FF
:1026A0004628F4D047281AD19FE118E0632835D096
:1026B000642879D0652812D197E1702873D008DC9E
:1026C0006728F1D069286FD06E280DD06F2806D109
:1026D000B5E073282CD0752875D0782874D05A4668
:1026E000179990476D1C76E1C4F30250022809D077
:1026F00003280DD0D9F8001004280DD00D6009F181
:10270000040968E1D9F80010EA17C1E90052F6E7B8
:10271000D9F800100D80F2E70D70F0E719F8041BEE
:102720008DF8001000208DF80100EA46012003E03A
:1027300059F804AB4FF0FF3061074FF0000102D4AD
:102740000DE008F101018846B9420FDA8045F8DB57
:102750001AF808100029F4D108E008F101018846B0
:102760008142FADB1AF808100029F6D105985B4679
:10277000A0EB080721463846179A00F09EFA284435
:1027800000EB080507E04DE02BE10DE01AF8010B26
:102790005A4617999047B8F10108F7D25B4621468F
:1027A0003846179A14E142E00A220092C4F302521A
:1027B0004FF0000A022A08D059F804CB032A4FEA46
:1027C000EC710AD00DE029E02AE009F1070121F0BF
:1027D0000702F2E802C1914609E00FFA8CFC4FEAC9
:1027E000EC71042A03D14FFA8CFC4FEAEC710029FA
:1027F00007DA0A460021DCF1000C61EB02012D2210
:1028000002E0220504D52B228DF80420012203E0EA
:10281000E20701D02022F7E7904653E00A2102E0C8
:1028200010220DE010214FF0000A00910BE0102261
:102830004FF0000A44F004040827009203E0082245
:102840004FF0000A0092C4F30252022A05D059F850
:1028500004CB0021032A08D009E009F1070121F087
:102860000702F2E802C1914605E01FFA8CFC042A37
:1028700001D10CF0FF0C4FF00008220722D5702880
:1028800027D0009B83F0100353EA0A0309D15CEAC6
:10289000010206D030228DF804208DF805000222B6
:1028A0009046009B83F0080353EA0A030AD15CEACE
:1028B000010201D1620705D530228DF804204FF0C6
:1028C00001087F1E582809D037A003900EA8029057
:1028D00013E040228DF804200122E1E737A0F4E75D
:1028E00053466046009AFFF7E1FA84460398825CFB
:1028F0000298A0F10100029002705CEA0100EFD1A1
:10290000029806A9A1EB000000F1200A600702D599
:1029100024F4803400E00127574502DDA7EB0A00CC
:1029200000E0002000EB0A01009005984144A0EB74
:1029300001000590E00306D45B462146179A0598EE
:1029400000F0BBF90544002706E001A85A46C05D27
:10295000179990476D1C7F1C4745F6DBE0030CD5AB
:102960005B462146179A059800F0A7F9054404E054
:1029700030205A46179990476D1C0099481E0090C8
:102980000029F5DC08E0029802995A460078491CB3
:102990000291179990476D1CBAF10001AAF1010A42
:1029A000F1DC6BE109280100303132333435363740
:1029B000383961626364656600000000303132338B
:1029C000343536373839414243444546000000002B
:1029D00000F060F9054406F10106307800287FF424
:1029E000E9AD19B02846BDE8F08F620700D406278C
:1029F00009F1070222F0070CFCE80223E14603F08C
:102A000000485FEA080C02D00FF27C2C0DE05FEA70
:102A1000045C02D50FF2742C07E05FEAC47C02D09C
:102A20000FF26C2C01E0AFF2700C4FF0FF3823F086
:102A30000043CDF850C065280CD006DC452809D0ED
:102A400046281DD047283ED13EE0662818D067288A
:102A500039D139E00021112F01DB112000E0781C71
:102A6000CDE9000106A90EA8FFF7EEFCDDE90F0194
:102A70000E9A03910021009207F1010A04914EE0A1
:102A80004FF000400097CDE9011006A90EA8FFF70E
:102A9000DBFCDDE90F0203920E9B11990022DDF8A9
:102AA0000CA00093049219B907F1010100EB010A8F
:102AB000B7EB0A0004D4C0F1FF3007F1010A04901B
:102AC000AAEB0700019046E0012F00DA0127002160
:102AD000112F01DD112000E03846CDE9000106A9E3
:102AE0000EA8FFF7B1FCDDE90F010E9A039100215A
:102AF00004910092BA4621070CD40399514500DA9B
:102B00008A46BAF1010F05DD009AAAF10101515C74
:102B1000302908D0B84202DA10F1040F06DA012198
:102B2000CDE9011017E0AAF10101E9E7002805DC71
:102B3000049901440491AAEB000102E0411C5145B3
:102B400000DD8A460499A0EB010000F1010001902C
:102B50004FF000400290200704D40198504501DB5B
:102B6000CDF8048000208DF84F0002980DF14F073A
:102B7000B0F1004F25D02B200E9002984FF00208A4
:102B800000280CDA404202902D200E9007E00A2126
:102B90000298FFF775F93031029007F8011DB8F17E
:102BA0000001A8F10108F2DC02980028EFD1791E9B
:102BB0000E980870307800F0200040F0450007F8CB
:102BC000020D12A8A0EB070000F107081498007886
:102BD00000B1012000EB0A01019801EBE0710598BA
:102BE0004144A0EB0100A0F101000590E00306D4F0
:102BF0005B462146179A059800F05FF80544149843
:102C0000007820B15A461799904705F10105E00375
:102C100023D55B462146179A059800F04EF80544E7
:102C20001BE00498002807DB0399814204DD049926
:102C30000098405C179901E0179930205A46904758
:102C400004986D1C401C04900198401E019004D112
:102C50002E205A46179990476D1CBAF10001AAF12F
:102C6000010ADEDC05E017F8010B5A461799904778
:102C70006D1CB8F10001A8F10108F4DC5B462146A7
:102C8000179A0598A4E600002D0000002B00000014
:102C9000200000002DE9F041044600251E4617469D
:102CA000880405D406E039462020B04705F1010527
:102CB000641EF8D52846BDE8F0812DE9F0410446B0
:102CC00000251E469046C80301D5302700E0202786
:102CD000880405D506E041463846B04705F10105B0
:102CE000641EF8D52846BDE8F0810A68531C0B60C5
:102CF00010707047142D00080000002048000000EC
:102D0000282400085C2D000848000020680B000003
:102D1000382400080000000000000000000000004F
:102D200000000000000000000000000000000000A3
:102D30000000000000A24A040000000000000000A3
:102D40000102030406070809000000000102030451
:0C2D50000102030406070809020406083B
:0400000508000131BD
:00000001FF
