:020000040800F2
:10000000B80B0020491D00086D0500086F050008A9
:1000100073050008770500087B0500080000000054
:100020000000000000000000000000007F05000844
:100030008105000800000000830500088505000810
:10004000631D0008631D0008631D0008631D000890
:10005000631D0008631D0008631D0008631D000880
:10006000631D0008631D0008631D0008631D000870
:10007000631D0008631D0008631D0008631D000860
:10008000631D0008631D0008631D0008631D000850
:10009000631D0008631D0008631D0008631D000840
:1000A000631D0008631D0008631D0008631D000830
:1000B000631D0008631D0008631D0008631D000820
:1000C000631D0008631D0008631D0008631D000810
:1000D000631D0008030E0008B50C0008631D00082E
:1000E000631D0008631D0008631D0008631D0008F0
:1000F000631D0008631D0008631D0008631D0008E0
:10010000631D0008631D0008631D0008631D0008CF
:10011000631D0008631D0008631D0008631D0008BF
:10012000631D0008631D0008631D0008631D0008AF
:10013000DFF80CD001F0E4FF00480047CF020008D0
:10014000B80B00202DE9F0419CB0BC49D1F85E000D
:1001500001F0F0FE0746B949D1F8DF0001F0EAFEF0
:100160008046B648D0F85E00B549B0FBF1F42046B1
:1001700001F0E5FE05460022B24B01F001FF0ED36F
:10018000AE48D0F8DF00AE49B0FBF1F4204601F0F4
:10019000D6FE05460022AB4B01F0F2FE02D2AAA029
:1001A00000F0A7FEA548C630A449D1F8DA1000F146
:1001B0001D02CDE900210290C638D0F8F730A44ADC
:1001C000A4A103A801F0CEFF03A800F092FEAD4960
:1001D00009680844AB49086041F2883000F04BFAE6
:1001E0001CB0BDE8F08108B50121082001F040FBFA
:1001F0004FF40050ADF8000010208DF803000320EC
:100200008DF802006946A04801F080F84FF40051D3
:100210009D4801F028F908BD10B5002099490860F3
:100220004FF40051984801F01CF942F2107000F0B0
:1002300022FA4FF40051944801F015F917E000F04C
:100240007AFE00B117E04FF400518F4801F009F930
:1002500042F2107000F00FFA4FF400518A4801F09A
:1002600002F900F068FE10B1012088490870874843
:1002700000780028E3D000BF85A000F05DFD40F6C7
:10028000B83000F0F8F987A000F056FD40F6B8301D
:1002900000F0F1F98AA000F04FFD40F6B83000F010
:1002A000EAF98BA000F048FD40F6B83000F0E3F921
:1002B0008DA000F041FD40F6B83000F0DCF991A0CF
:1002C00000F03AFD4FF47A7000F0D5F910BD9AB005
:1002D00000F09BFC00F0D9FC00F041FD00F07EFD39
:1002E000FFF781FF4FF40051674801F0BCF84FF46D
:1002F0000051654801F0B5F842F2107000F0BBF90A
:100300004FF40051604801F0AEF813E04FF4005193
:100310005D4801F0A6F842F2107000F0ACF94FF41D
:100320000051594801F09FF800F005FE10B101207E
:1003300056490870554800780028E7D07CA000F0A6
:10034000FBFC4FF4FA6000F096F951A000F0F4FCC9
:1003500040F6B83000F08FF952A000F0EDFC40F606
:10036000B83000F088F956A000F0E6FC40F6B8304E
:1003700000F081F956A000F0DFFC40F6B83000F044
:100380007AF959A000F0D8FC40F6B83000F073F9C3
:100390005CA000F0D1FC4FF47A7000F06CF92C48AE
:1003A00000F052FD2A4800F0A4FD45E063480078C3
:1003B000012813D1002404E06148005D614908551B
:1003C000641CFF2CF8DD00205C4908705D491B4867
:1003D00000F0C6FB00205C49086000BF174890F899
:1003E000FE00032804D1002058490860FFF7AAFE48
:1003F00024480068032801DDFFF70EFF534800681A
:10040000401C5249086050480068401C4E49086032
:100410004E480068142803DC0846006814280BDDE9
:100420004A48036848484AA1026801A801F09AFEB8
:1004300001A800F05EFD00BFB8E70000B801002091
:10044000A0860100008076404552524F52000000C5
:10045000540000207B22494D4549223A22252E3165
:100460003573222C226C6E67223A22252E2A7322A3
:100470002C226C6174223A22252E2A73227D0D0AC9
:100480000000000000000020000C014028000020B7
:1004900041542B4347434C4153533D2242220D0AC2
:1004A0000000000041542B434744434F4E543D311C
:1004B0002C224950222C22434D4E4554220D0A0035
:1004C00041542B43474154543D310D0A0000000074
:1004D00041542B434950435347503D312C22434D07
:1004E0004E4554220D0A000041542B434C504F52AC
:1004F000543D22544350222C2232323232220D0AF1
:100500000000000041542B43495053544152543D84
:1005100022544350222C223132302E32352E3231A9
:10052000382E3932222C2239393139220D0A000075
:1005300041542B434F50533F0D0A0000150000203B
:10054000B7020020B80000200400002008000020AE
:100550004765745F4572726F723A25642C416E6113
:100560005F4572726F723A2564000000704700BFE9
:10057000FEE700BFFEE700BFFEE700BFFEE77047F3
:100580007047704710B500F094F810BD30B50146C3
:10059000B1F1807F01D3012030BD21F07F40401EAA
:1005A0004FF0E022506150170F22002807DA13079E
:1005B0001D0E444B00F00F04241F1D5503E01307CC
:1005C0001C0E414B1C5400BF00204FF0E0229061F4
:1005D000072010610020DFE710B500BF3B4800682E
:1005E0003B49B0FBF1F42046FFF7D0FF0028F5D1DE
:1005F0004FF0E020006920F001004FF0E021086199
:1006000010BD70B5044600BF304800680A21B0FB39
:10061000F1F52846FFF7BAFF0028F5D12D48046010
:100620004FF0E020006940F001004FF0E021086148
:1006300000BF284800680028FBD170BD70B5044693
:1006400000BF224800682249B0FBF1F52846FFF7B9
:100650009DFF0028F5D11F4804604FF0E02000699D
:1006600040F001004FF0E021086100BF1948006828
:100670000028FBD170BD70B5044600BF1348006868
:100680004FF47A71B0FBF1F52846FFF77FFF0028A1
:10069000F4D1104804604FF0E020006940F0010000
:1006A0004FF0E021086100BF0A4800680028FBD134
:1006B00070BD0848006820B106480068401E054922
:1006C0000860704718ED00E000E400E02C00002016
:1006D00040420F000C00002070B506460C46FBA1FE
:1006E000204601F043FB054670BD10B502460120CF
:1006F00000E050430B00A1F10104E1B2F9D110BDBB
:100700002DE9F34F81B007463C4600200090834618
:1007100081460026804628E020782D2802D148F026
:100720000208641C20782C2802D020782A2800D1C6
:100730001CE020782E2803D148F00108641C09E051
:100740002078392802DC2078302803DA4FF00009BD
:1007500000260BE018F0010F02D0701CC6B203E0B7
:1007600009F1010000F0FF09641CD5E700BF18F093
:10077000020F00D07F1C00250EE0A9F10100401BF4
:10078000C1B20A20FFF7B1FF795D3039009A00FB52
:1007900001200090681CC5B24D45EEDB052E00DD42
:1007A00005260298067000250EE0701E401BC1B29F
:1007B0000A20FFF79AFF09F101012944795C3039D9
:1007C00000FB01BB681CC5B2B542EEDB31460A2016
:1007D000FFF78BFF009901FB00BA18F0020F01D060
:1007E000CAF1000A5046BDE8FE8F0246134610E0EB
:1007F00010782A2805D01078202802DB10787A2873
:1008000001DDFF20704710782C2801D1481EC1B2AD
:10081000521C0029ECD1D01AC0B2F3E7F8B5044657
:100820000D46ACA1284601F0A1FA06460221304649
:10083000FFF7DBFF0746FF2F05D0F0196946FFF7EA
:100840005FFF84F8FE00F8BD2DE9F34F95B0044634
:100850000026B1460025A1A1169801F087FA80462E
:10086000C34600BF77E01BF809002C2803D108A875
:1008700040F82690761C042E31D1002520E0B01ED1
:1008800008A951F820002844401C1BF8001004F16E
:10089000C6004155405D2E2811D1012D0FDD681E87
:1008A00004F1C601095C04F1C6004155A81E04F11B
:1008B000C6010A5C681E0A542E22A81E0A546D1C2A
:1008C000701E08A951F82010B01E08AA52F8200086
:1008D000081A401EA842D2D8681CC4F8DA00062EB6
:1008E00031D1002520E0B01E08A951F8200028448D
:1008F000401C1BF8001004F1E3004155405D2E2818
:1009000011D1012D0FDD681E04F1E301095C04F132
:10091000E3004155A81E04F1E3010A5C681E0A5475
:100920002E22A81E0A546D1C701E08A951F8201012
:10093000B01E08AA52F82000081A401EA842D2D8B9
:10094000681CC4F8F7001BF8091004F1620000F8F5
:10095000091009F10109062E02D2B9F1460F82DB16
:10096000002184F8C51003214046FFF73EFF0746EB
:10097000FF2F45D008EB070014A9FFF7C1FE824600
:100980009DF85000801CC1B20A20FFF7AEFEBAFBF2
:10099000F0F044F85E0F9DF85000801CC1B20A20B0
:1009A000FFF7A3FEBAFBF0F100FB11A0069001F0E7
:1009B000C1FA07909DF85000C0F10500C1B20A20AD
:1009C000FFF793FE019001F0B5FA0290079901F04C
:1009D0003BFA4449039001F06DFA052105900A2085
:1009E000FFF783FE21684843039001F0A3FA0490C7
:1009F000059901F0D1F9069001F0AEFA44F85E09CC
:100A000004214046FFF7F1FE0746FF2F03D018F8F8
:100A1000070084F8DE0005214046FFF7E6FE0746A2
:100A2000FF2F45D008EB070014A9FFF769FE8246A7
:100A30009DF85000801CC1B20A20FFF756FEBAFB99
:100A4000F0F044F8DF0F9DF85000801CC1B20A207E
:100A5000FFF74BFEBAFBF0F100FB11A0069001F08E
:100A600069FA07909DF85000C0F10500C1B20A2054
:100A7000FFF73BFE019001F05DFA0290079901F04B
:100A8000E3F91849039001F015FA052105900A20B1
:100A9000FFF72BFE21684843039001F04BFA0490C6
:100AA000059901F079F9069001F056FA44F8DF094A
:100AB00006214046FFF799FE0746FF2F03D018F89E
:100AC000070084F8FB0017B0BDE8F08F4750474C93
:100AD0004C00000024475047534100004750524DFE
:100AE0004300000000007042F8B505460F4635A1EE
:100AF000384601F03BF9064606213046FFF775FE01
:100B00000446FF2C05D030196946FFF7F9FD85F83A
:100B1000FC0007213046FFF768FE0446FF2C05D095
:100B200030196946FFF7ECFD85F8FD00F8BD2DE9A9
:100B3000F84304460D46A84624A1404601F016F9A4
:100B4000064603213046FFF750FE0746FF2F05D02B
:100B5000F0196946FFF7D4FD84F85D00BDE8F8831D
:100B600070B505460C4619A1204601F0FFF818B1F2
:100B700021462846FFF7DBFF12A1204601F0F6F8D8
:100B800018B121462846FFF7AFFF12A1204601F019
:100B9000EDF818B121462846FFF756FEAFF2CC011A
:100BA000204601F0E3F818B121462846FFF736FE4B
:100BB0000AA1204601F0DAF818B121462846FFF7CD
:100BC0008BFD70BD244750474741000024475047E4
:100BD00053560000244750524D43000024475047CD
:100BE0004C4C000010B504460BE000BF40214C48BF
:100BF00001F050F80028F9D02178494800F0DCFFD6
:100C0000641C20780028F0D110BD00B585B001210A
:100C1000042000F02DFE0121480400F036FE0420DF
:100C2000ADF8100018208DF8130003208DF8120085
:100C300004A93C4800F06AFB0820ADF8100004202D
:100C40008DF8130004A9374800F060FB4FF41650EC
:100C500000900020ADF80400ADF80600ADF80800E3
:100C6000ADF80C000C20ADF80A0069462C4800F0E5
:100C7000AAFE012240F22551294800F03CFF012143
:100C8000274800F02CFF05B000BD08B54FF4E06028
:100C900000F06EFA26208DF8000001208DF801008A
:100CA00000208DF8020001208DF80300684600F056
:100CB00064FA08BD10B540F22551194801F000F85A
:100CC00058B319480078012804D11548001D008840
:100CD000C4B210BD1248001D0088C4B2242C05D136
:100CE0000120124908700020114908600F4800785F
:100CF000012812D10F480E49096844540C48006875
:100D0000401C0B4908600A2C07D1012006490870D5
:100D10000020074908600549087000BFD9E70000B6
:100D2000004400400008014015000020140000208D
:100D300010000020B702002010B504460BE000BFF1
:100D40004021884800F0A6FF0028F9D02178854886
:100D500000F032FF641C20780028F0D110BD00B5EF
:100D600085B0012144F2040000F082FD4FF40070D0
:100D7000ADF8100018208DF8130003208DF8120034
:100D800004A9794800F0C2FA4FF48060ADF8100071
:100D900004208DF8130004A9734800F0B7FA4FF44B
:100DA000165000900020ADF80400ADF80600ADF834
:100DB0000800ADF80C000C20ADF80A00694669483F
:100DC00000F001FE012240F22551664800F093FE3A
:100DD0000121644800F083FE05B000BD08B54FF462
:100DE000E06000F0C5F925208DF8000001208DF8A5
:100DF00001008DF802008DF80300684600F0BDF98F
:100E000008BD10B540F22551564800F059FFD0B149
:100E10005448001D0088C4B25448554909684454D8
:100E20000A2C04D153480068401C524908605048BD
:100E30000068401C4E49086008460068FF2802D937
:100E400008460078086010BD70B59AB005460026C7
:100E500000240020464908600846006846490860AA
:100E60001A21404800F0A8FE00204149086042498C
:100E7000086042A0FFF760FF4FF4FA70FFF7FBFB3A
:100E800000BF04E03948005D01A90855641C3848DA
:100E900000688442F6D33CA101A801F063F9002068
:100EA00085F8630000240CE001A8005D302807DD10
:100EB00001A8005D392803DA01A8005DA855761C59
:100EC000641C632CF0D31AB070BD00210BE02748DE
:100ED000405C4F2806D1254A481C105C4B2801D1A4
:100EE00001207047491C224800688142EFD300204E
:100EF000F7E770B5054600241CE000201C49086097
:100F00001D49086022A0FFF717FF2846FFF714FFCE
:100F10001A21144800F050FE4FF44870FFF7ABFB65
:100F2000FFF7D3FF08B1002070BD641C032C01DD66
:100F30000120F9E7E1E710B500200D4908600E49EE
:100F4000086017A0FFF7F8FE4FF4FA70FFF793FB65
:100F50000748006808490968884201D9012010BD86
:100F60000020FCE70038014000080140B7060020DF
:100F70001C000020200000202400002041542B47AA
:100F8000534E0D0A000000006C656E3A0000000030
:100F900041542B43495053454E440D0D0000000071
:100FA00041540D0A0000000000210020674A126829
:100FB00042F48032654B1A6000BF644A126802F442
:100FC0000030491C10B9B1F5A06FF6D15F4A126824
:100FD00012F4003F01D0012000E00020012842D19E
:100FE0005B4A126842F01002594B1A601A461268A6
:100FF00022F003021A601A46126842F002021A60D6
:10100000524A5268514B5A601A4652685A601A4600
:10101000526842F480625A601A46526822F47C1286
:101020005A601A46526842F4E8125A601A46126828
:1010300042F080721A6000BF444A126812F0007FCA
:10104000FAD0424A526822F00302404B5A601A46D4
:10105000526842F002025A6000BF3C4A526802F0F5
:101060000C02082AF9D1704710B5FFF79DFF10BD9B
:1010700010B53648006840F0010034490860084661
:1010800040683449084031494860084600683249A0
:1010900008402E4908600846006820F48020086057
:1010A0000846406820F4FE0048604FF41F00886046
:1010B000FFF7DAFF4FF000602849086010BD10B557
:1010C000002100200022214B5B6803F00C0121B1BC
:1010D000042906D0082928D107E0214B214C2360A0
:1010E00027E01F4B1F4C236023E0184B5B6803F481
:1010F0007010164B5B6803F48032022303EB9040C0
:1011000022B9194B4343174C23600DE00F4B5B682A
:1011100013F4003F04D0144B4343124C236003E00C
:101120000F4B43430F4C236003E00D4B0D4C2360EA
:1011300000BF00BF054B5B68C3F303130B4CE15CBE
:10114000084B1B68CB40074C236010BD00100240C9
:10115000002002400000FFF8FFFFF6FE08ED00E06F
:1011600000127A002C00002000093D003000002011
:1011700031490143314A1160704770B500210023A5
:101180000F22C4780CB32D4C246804F4E064C4F539
:10119000E064210AC1F10403CA40447804FA03F16F
:1011A0008478144021430901254C0678A155047820
:1011B00004F01F050124AC4005786D114FF0E026C6
:1011C00006EB8505C5F8004109E0047804F01F0529
:1011D0000124AC401B4D0678761145F8264070BDC1
:1011E000194A0A400243154B1B1F1A60704739B158
:1011F000124A121D12680243104B1B1D1A6006E0B2
:101200000E4A121D126882430C4B1B1D1A60704758
:10121000042808D14FF0E021096941F004014FF0A2
:10122000E022116107E04FF0E021096921F004019B
:101230004FF0E022116170470000FA050CED00E06C
:1012400000E400E080E100E080FFFF1F10B50446ED
:10125000CA48844208D10121042000F023FB002168
:10126000042000F01FFB46E0C548844208D101215C
:10127000082000F017FB0021082000F013FB3AE0E3
:10128000C048844208D10121102000F00BFB00214E
:10129000102000F007FB2EE0BB48844208D101215A
:1012A000202000F0FFFA0021202000F0FBFA22E0CD
:1012B000B648844208D10121402000F0F3FA002111
:1012C000402000F0EFFA16E0B148844208D1012135
:1012D000802000F0E7FA0021802000F0E3FA0AE025
:1012E000AC48844207D10121801500F0DBFA0021CF
:1012F000A01500F0D7FA10BD10B50121084600F086
:10130000D1FA0021012000F0CDFA10BD2DE9F04105
:10131000024600250026002000230024002791F823
:1013200003C00CF00F0591F803C01CF0100F03D0A0
:1013300091F802C04CEA050591F800C0BCF1000F1D
:1013400031D0146800202BE04FF0010C0CFA00F3B0
:10135000B1F800C00CEA03069E4220D183004FF092
:101360000F0C0CFA03F7BC4305FA03FC4CEA040427
:1013700091F803C0BCF1280F06D14FF0010C0CFA14
:1013800000FCC2F814C00AE091F803C0BCF1480F99
:1013900005D14FF0010C0CFA00FCC2F810C0401C43
:1013A0000828D1D31460B1F800C0BCF1FF0F34DDC0
:1013B000546800202EE000F1080C4FF0010808FAF4
:1013C0000CF3B1F800C00CEA03069E4221D1830061
:1013D0004FF00F0C0CFA03F7BC4305FA03FC4CEA80
:1013E000040491F803C0BCF1280F05D100F1080CEA
:1013F00008FA0CF8C2F8148091F803C0BCF1480F49
:1014000007D100F1080C4FF0010808FA0CF8C2F8F7
:101410001080401C0828CED35460BDE8F0814FF600
:10142000FF710180022181700421C1707047024662
:10143000002093680B4201D0012000E0002070479B
:101440000146886880B2704702460020D3680B428C
:1014500001D0012000E0002070470146C86880B23A
:10146000704701617047416170470AB1016100E056
:1014700041617047C16070474FF480320A43826116
:101480008161826182698269704702460020424B15
:1014900018684FF68073184040EA021008433E4B2C
:1014A000186070473D49C8617047F0B50A4600238F
:1014B00000240021002500F00046B6F1004F02D1C3
:1014C000354EF16901E0344E7168C0F3034583B2D3
:1014D00000F44016B6F5401F08D121F070612E4E81
:1014E000766826F070662C4F7E6012E000F480165D
:1014F000B6F5801F06D1032606FA05F4A14341F094
:10150000706106E0460D360103FA06F6B14341F07C
:10151000706122B1460D360103FA06F6314300F040
:101520000046B6F1004F02D11B4EF16101E01A4EA8
:101530007160F0BD30B500228B071C0F0F2303FA3A
:1015400004F2154B08338C1053F824309343124C9B
:1015500008348D1044F8253023468C1053F824307D
:101560008C07240F00FA04F423430B4C08348D102D
:1015700044F8253030BD0A49086070470008014032
:10158000000C01400010014000140140001801400F
:10159000001C0140002001400000014000002042EA
:1015A000DC002042DB48006840F00100D9490860B7
:1015B00008464068D8490840D6494860084600684F
:1015C000D6490840D34908600846006820F48020C6
:1015D00008600846406820F4FE0048604FF41F0091
:1015E00088607047CB49096821F48031C94A11608D
:1015F0001146096821F480211160B0F5803F03D0C5
:10160000B0F5802F0ED106E0C249096841F480315F
:10161000C04A116007E0BF49096841F4A021BD4AF2
:10162000116000E000BF00BF704710B50146002206
:10163000002300204A11012A02D1B64C236806E09B
:10164000022A02D1B34C236A01E0B24C636A01F072
:101650001F02012494401C4201D0012000E0002020
:1016600010BD70B500240025002600BF3120FFF713
:10167000DCFF0646641CB4F5A06F01D0002EF5D047
:101680003120FFF7D2FF08B1012500E000252846F0
:1016900070BD014600209F4A106820F0F80040EA23
:1016A000C100106070479E490860704702460020E4
:1016B000984B586820F47C1042EA01031843954B7C
:1016C0005860704796490866704701460020914A65
:1016D000506820F003000843506070478D48406810
:1016E00000F00C007047014600208A4A506820F044
:1016F000F00008435060704701460020854A50685A
:1017000020F4E06008435060704701460020814AA1
:10171000506820F4605040EAC1005060704729B121
:101720007C4A527A02437B4B5A7204E0794A527ADD
:101730008243784B5A7270477A4908607047014675
:101740000020744A506820F44040084350607047BD
:101750000021754A11706F4A82F82010012802D0CA
:10176000042808D103E001216F4A117004E005212B
:101770006D4A117000E000BF00BF70476B49086000
:1017800070476449096A0143624A116270476749B8
:1017900044390860704730B500210022002400233E
:1017A0005C4D6D6805F00C0121B1042905D00829B4
:1017B00023D105E05E4D056022E05D4D05601FE030
:1017C000544D6D6805F47012524D6D6805F4803407
:1017D000022505EB92421CB9564D554305600BE0BE
:1017E0004C4D6D6815F4003F03D0524D55430560D4
:1017F00002E04F4D5543056002E04D4D056000BFCE
:1018000000BF444D6D6805F0F00109094A4D6B5C5D
:101810000568DD4045603F4D6D6805F4E061090AEB
:10182000454D6B5C4568DD4085603A4D6D6805F45B
:101830006051C90A404D6B5C4568DD40C560354D5F
:101840006D6805F44041890B3C4D6B5CC568B5FB88
:10185000F3F5056130BD29B12E4A526902432D4B83
:101860005A6104E02B4A526982432A4B5A617047FD
:1018700029B1284A92690243264B9A6104E0254A1D
:1018800092698243234B9A61704729B1214AD269F8
:101890000243204BDA6104E01E4AD26982431D4BA9
:1018A000DA61704729B11B4AD2680243194BDA60EA
:1018B00004E0184AD2688243164BDA60704729B1B7
:1018C000144A12690243134B1A6104E0114A126967
:1018D0008243104B1A6170471449403908607047C1
:1018E0000F49C86470470B49C87170470948406A7E
:1018F00040F0807007494862704701460020054A61
:1019000092680A4201D0012000E00020704701499E
:1019100088727047001002400000FFF8FFFFF6FEDB
:1019200000004242D800424220100240800442425D
:1019300000127A0000093D00400000205000002005
:1019400010B50446FB48844209D101218803FFF702
:10195000A9FF00214FF48040FFF7A4FF32E0F648D2
:10196000844209D101214804FFF7A9FF00214FF467
:101970000030FFF7A4FF25E0F048844209D101219F
:101980008804FFF79CFF00214FF48020FFF797FFAA
:1019900018E0EB48844209D10121C804FFF78FFF0A
:1019A00000214FF40020FFF78AFF0BE0E548844256
:1019B00008D101210805FFF782FF00214FF48010B4
:1019C000FFF77DFF10BD2DE9F04786B005460E46B6
:1019D0000024A24600BFA1460027B08900B100BF85
:1019E0002F462C8A4CF6FF700440F08804432C826A
:1019F000AC894EF6F3100440B088318908437189F0
:101A000008430443AC81AC8A4FF6FF400440B089E0
:101A10000443AC8201A8FFF7BEFEC648874202D14C
:101A2000DDF810A001E0DDF80CA0A88910F4004F4B
:101A300008D00AEBCA0000EB0A1031684900B0FB7D
:101A4000F1F807E00AEBCA0000EB0A1031688900E0
:101A5000B0FBF1F86420B8FBF0F004012009642128
:101A600001FB1089A88910F4004F08D0322000EB48
:101A7000C900B0FBF1F000F00700044308E0322099
:101A800000EB09106421B0FBF1F000F00F000443FB
:101A90002C8106B0BDE8F0874FF41651016000219B
:101AA0008180C18001810C214181002181817047A9
:101AB00010B502460020108A4FF2FF0318400B8831
:101AC0004C8823438C882343CC88234318431082BB
:101AD00010BD0021018041808180C180704721B10B
:101AE000828942F40052828104E082894DF6FF73BC
:101AF0001A4082817047F0B5034600240026002575
:101B00000020A1F510676A3F00D100BF1846C1F35D
:101B1000421401F01F06012707FA06F5012C01D136
:101B20000C3004E0022C01D1103000E014301AB166
:101B300007682F43076002E00768AF430760F0BD06
:101B40001AB1838A0B43838202E0838A8B438382A8
:101B50007047028A4FF6F0731A400282028A0A43E3
:101B60000282704782894FF2FF731A408281828914
:101B70000A438281704721B1828942F00202828148
:101B800004E082894FF6FD731A4082817047028A11
:101B90004FF6DF731A400282028A0A4302827047BC
:101BA00021B1028A42F48042028204E0028A4BF6AA
:101BB000FF731A4002827047C1F3080282807047A7
:101BC00001468888C0F308007047818941F001010F
:101BD00081817047028BD2B20283028B42EA0122DA
:101BE00002837047028B02F47F420283028B0A4316
:101BF0000283704721B1828A42F02002828204E08F
:101C0000828A4FF6DF731A408282704721B1828A3E
:101C100042F01002828204E0828A4FF6EF731A408B
:101C20008282704721B1828A42F00802828204E0F7
:101C3000828A4FF6F7731A408282704721B18289F7
:101C400042F40042828103E08289C2F30E02828163
:101C5000704721B1828A42F40062828204E0828A63
:101C60004FF2FF731A4082827047828A4FF6FB73ED
:101C70001A408282828A0A438282704721B1828A14
:101C800042F00202828204E0828A4FF6FD731A401B
:101C90008282704702460020B1F5007F00D100BF6C
:101CA00013880B4201D0012000E00020704701F4AE
:101CB0000072B2F5007F00D100BFCA4302807047B6
:101CC00070B502460024002300250020A1F510660F
:101CD0006A3E00D100BFC1F3421501F01F03012687
:101CE00006FA03F3012D02D19689334006E0022D56
:101CF00002D1168A334001E0968A33400C12012645
:101D000006FA04F41688344013B10CB1012000E047
:101D1000002070BD10B500220023A1F510646A3CBC
:101D200000D100BF0A1201249440A3B2DC43048016
:101D300010BD000000380140004400400048004051
:101D4000004C0040005000400648804706480047CD
:101D5000FEE7FEE7FEE7FEE7FEE7FEE7FEE7FEE75B
:101D6000FEE7FEE7711000083101000830B50EE013
:101D700003460A4601E05B1C521C1C781578AC42F5
:101D800001D1002CF7D115F0FF0F04D0401C0278D0
:101D9000002AEDD1002030BDF0B480EA0102D40F5A
:101DA0004200B2EB410F02D20246084611464A00F9
:101DB00042D0C30DDDB2C1F3C752AD1A202D35DAC2
:101DC000C1F3160141F4000204B15242C5F12006EC
:101DD00002FA06F12A411044B3EBD05F23D0C4B11C
:101DE000012DA0EBC35009DCF0BC4FF0004202EA29
:101DF000C35200F50000DBB200F0F5B8400000F17E
:101E0000807000EBC350A0F1807040EAD1704900AF
:101E100009E0490841EAC071A0EBC35000F5000099
:101E2000400800EBC350F0BC00F0D4B8614201227E
:101E300002EB4101001BF6E7F0BC704781F0004166
:101E4000AAE780F00040A7E780EA010210B502F09F
:101E50000043400026D04A0023D04FEA106101EB36
:101E60001261C0F35600C2F3560240F4000042F47F
:101E70000002A0FB0220A1F17F014FEA0040140400
:101E800001D000F1010050EA124001D44000491E87
:101E9000C2B20C0604EBD010401C4008802A02D0CD
:101EA00003E0002010BD20F00100002900DA00202E
:101EB000184310BD30B480EA010202F0004530F052
:101EC000004221F0004015D0A0B1C0F3C753C2F3C7
:101ED000C754C2F31601C0F31600E41A41F400011E
:101EE00040F400027D34914201D3641C00E04900BB
:101EF000002C02DA30BC002070474FF400000023B1
:101F0000914201D3891A034340084FEA4101F7D1B6
:101F100051B1914202D14FF0004105E002D24FF0A1
:101F2000010101E06FF0010103EBC450284430BC13
:101F300000F050B896230022114600F054B80EB5B8
:101F400040F2334102910021CDE900110A460B46CF
:101F500000F083F803B000BD20F00040C10DC0F3D5
:101F6000160040F400007F2901DA0020704796290E
:101F700003DCC1F19601C84070479639884070472C
:101F800030B5002904DB4FF00044404264EB01010E
:101F9000002B04DB4FF00044524264EB03039942F0
:101FA00008BF904230BD000030B50B46014600200E
:101FB0002022012409E021FA02F59D4205D303FA0B
:101FC00002F5491B04FA02F52844151EA2F101028C
:101FD000F1DC30BD0029A8BF7047401C490008BF94
:101FE00020F00100704710B4B0FA80FC00FA0CF049
:101FF00050EA010404BF10BC704749B1CCF1200481
:1020000021FA04F411FA0CF118BF0121214308430D
:10201000A3EB0C01CB1D0106000A002BBEBF002064
:1020200010BC704700EBC35010440029A4BF10BC83
:102030007047401C490008BF20F0010010BC7047E9
:1020400010B5002B08DA401C41F1000192185B41E9
:102050001A4301D120F0010010BD2DE9F04D924648
:102060009B4611B1B1FA81F202E0B0FA80F220325F
:10207000904600F057F804460F4640EA0A0041EA4D
:102080000B0153465A46084303D120463946BDE862
:10209000F08D114653EA010015D0C8F140025046B8
:1020A00000F04FF805460E4650465946424600F0AD
:1020B00039F8084301D0012000E00020054346EA3A
:1020C000E0762C4337430A984FEA4453A0EB0800CC
:1020D0004FEAD4240A304FF0000244EA47544FEA52
:1020E000D72502D500200146D1E701051019694125
:1020F000DDE9084500196941BDE8F04DA0E70000A1
:10210000064C074D06E0E06840F0010394E8070044
:1021100098471034AC42F6D3FEF70EF8702300084F
:1021200090230008202A04DB203A00FA02F1002064
:1021300070479140C2F1200320FA03F31943904005
:102140007047202A04DB203A21FA02F00021704770
:1021500021FA02F3D040C2F120029140084319460F
:10216000704700000FB4084B10B504A902AA0398E9
:1021700000F01CF8044602A9002000F0F3F8204605
:1021800010BC5DF814FB00006523000802E008C8DD
:10219000121F08C1002AFAD170477047002001E0E1
:1021A00001C1121F002AFBD1704700002DE9FF4F2B
:1021B0008BB09A460F4605460026C9E0252837D140
:1021C00000246D1C6649A14601222B78203B02FAAF
:1021D00003F0084202D004436D1CF6E728782E284D
:1021E00017D115F8010F44F004042A280ED06FF01F
:1021F0002F022878A0F1300109290AD809EB8901BA
:1022000002EB410100EB01096D1CF2E757F8049B5A
:102210006D1C287869283FD006DC002871D063281F
:102220000CD0642804D137E0732811D075284ED023
:1022300052460D99904706F1010688E017F8040B05
:102240008DF8000000208DF80100E846012003E031
:1022500057F8048B4FF0FF3061074FF0000401D4B2
:102260000AE0641C4C450DDA8442FADB18F80410CD
:102270000029F6D106E0641C8442FCDB18F8041047
:102280000029F8D1264404E018F8010B52460D99B4
:102290009047641EF8D25AE001CF4FF00A0B002895
:1022A00004DAC0F100004FF02D0102E0210504D551
:1022B0002B218DF82410012103E0E10705D0202116
:1022C000F7E70DF1200808910CE00021F9E701CFB4
:1022D0004FF00A0BF9E75946FFF766FE01F13002AD
:1022E00008F8012D0028F6D1ADEB080000F1200B15
:1022F000600701D44FF00109D94503DDA9EB0B00BC
:1023000001E029E000208146002406E009A85246A9
:10231000005D0D999047761C641C08988442F5DB9B
:1023200004E0302052460D999047761CB9F1000127
:10233000A9F10109F5DC05E018F8010B52460D99E9
:102340009047761CBBF10001ABF1010BF4DC6D1C76
:10235000287800287FF432AF0FB03046BDE8F08F08
:10236000092801000A68531C0B60107070470000B8
:102370009023000800000020540000008C21000879
:10238000E423000854000020640B00009C21000896
:10239000000000000000000000000000000000003D
:1023A000000000000000000000000000000000002D
:1023B00000000000000000000000000000A24A042D
:1023C00000000000000000000102030406070809E5
:1023D00000000000010203040102030406070809CB
:0423E00002040608E5
:0400000508000131BD
:00000001FF
