:020000040800F2
:10000000180B0020E11900081D0400081F04000857
:1000100023040008270400082B0400080000000047
:100020000000000000000000000000002F04000895
:100030003104000800000000330400083504000803
:10004000FB190008FB190008FB190008FB19000840
:10005000FB190008FB190008FB190008FB19000830
:10006000FB190008FB190008FB190008FB19000820
:10007000FB190008FB190008FB190008FB19000810
:10008000FB190008FB190008FB190008FB19000800
:10009000FB190008FB190008FB190008FB190008F0
:1000A000FB190008FB190008FB190008FB190008E0
:1000B000FB190008FB190008FB190008FB190008D0
:1000C000FB190008FB190008FB190008FB190008C0
:1000D000FB1900085B0B0008210A0008FB19000847
:1000E000FB190008FB190008FB190008FB190008A0
:1000F000FB190008FB190008FB190008FB19000890
:10010000FB190008FB190008FB190008FB1900087F
:10011000FB190008FB190008FB190008FB1900086F
:10012000FB190008FB190008FB190008FB1900085F
:10013000DFF80CD001F0A8FF00480047E7010008F5
:10014000180B00202DE9F04790B07149D1F85E00FE
:1001500001F03CFD81466E49D1F8630001F036FDA7
:1001600082466C49504601F0F1FC8246044601F09B
:1001700046FD05460E466749484601F0E7FC8146C4
:10018000044601F03CFD07463A460B4662A103A82F
:10019000CDE9005602F01AF803A800F079FC1A2104
:1001A000654801F055FB41F2883000F0BCF910B011
:1001B000BDE8F08708B50121082001F0A5F94FF44A
:1001C0000050ADF8000010208DF8030003208DF8DA
:1001D00002006946594800F0E5FE4FF400515748C7
:1001E00000F08DFF08BD00F0C6FB00F004FC00F03D
:1001F00062FC00F09FFCFFF7DDFF4FF400514F4819
:1002000000F07DFF4FF400514C4800F076FF42F2C1
:10021000107000F088F94FF40051484800F06FFF6B
:1002200009E047A000F034FC41F2883000F07BF98F
:10023000012045490870444800780028F1D01A216F
:100240003D4801F005FB09E040A000F021FC41F22F
:10025000883000F068F901203F4908703E48007876
:100260000028F1D03DA000F013FC41F2883000F0EE
:100270005AF93FA000F00CFC41F2883000F053F92D
:1002800042A000F005FC41F2883000F04CF943A098
:1002900000F0FEFB41F2883000F045F945A000F087
:1002A000F7FB41F2883000F03EF949A000F0F0FB86
:1002B00042F2107000F037F9504800F06AFC4FF439
:1002C0007A7000F030F921E04D480078012810D113
:1002D00000204B490870002404E04A48005D4A4968
:1002E0000855641CFF2CF8DD4749094800F0F2FA74
:1002F00000BF074890F86A00032807D143A000F028
:10030000C7FB3E4800F0C4FBFFF71CFFDCE7000022
:10031000480100200050C3474C61746974756465DE
:100320003A252E35662C4C6F6E6769747564653A94
:10033000252E35660D0A000000380140000C0140F2
:1003400041540D0A000000001C00002041542B43C2
:100350004F50533F0D0A00001D00002041542B4315
:1003600047434C4153533D2242220D0A00000000F6
:1003700041542B434744434F4E543D312C22495066
:10038000222C22434D4E4554220D0A0041542B434A
:10039000474154543D310D0A0000000041542B43A5
:1003A0004950435347503D312C22434D4E45542232
:1003B0000D0A000041542B434C504F52543D2254DF
:1003C0004350222C2232323232220D0A0000000029
:1003D00041542B43495053544152543D22544350AD
:1003E000222C223132302E32352E3231382E393213
:1003F000222C2239393139220D0A0000B3010020A4
:1004000009000020170200204800002041542B431F
:10041000495053454E440D0A00000000704700BF8C
:10042000FEE700BFFEE700BFFEE700BFFEE7704744
:100430007047704710B500F094F810BD30B5014614
:10044000B1F1807F01D3012030BD21F07F40401EFB
:100450004FF0E022506150170F22002807DA1307EF
:100460001D0E444B00F00F04241F1D5503E013071D
:100470001C0E414B1C5400BF00204FF0E022906145
:10048000072010610020DFE710B500BF3B4800687F
:100490003B49B0FBF1F42046FFF7D0FF0028F5D12F
:1004A0004FF0E020006920F001004FF0E0210861EA
:1004B00010BD70B5044600BF304800680A21B0FB8B
:1004C000F1F52846FFF7BAFF0028F5D12D48046062
:1004D0004FF0E020006940F001004FF0E02108619A
:1004E00000BF284800680028FBD170BD70B50446E5
:1004F00000BF224800682249B0FBF1F52846FFF70B
:100500009DFF0028F5D11F4804604FF0E0200069EE
:1005100040F001004FF0E021086100BF1948006879
:100520000028FBD170BD70B5044600BF13480068B9
:100530004FF47A71B0FBF1F52846FFF77FFF0028F2
:10054000F4D1104804604FF0E020006940F0010051
:100550004FF0E021086100BF0A4800680028FBD185
:1005600070BD0848006820B106480068401E054973
:100570000860704718ED00E000E400E02000002073
:1005800040420F000000002010B50246012000E0AC
:1005900050430B00A1F10104E1B2F9D110BD2DE9E6
:1005A000F34F81B007463C460020009083468146C9
:1005B0000026804628E020782D2802D148F0020845
:1005C000641C20782C2802D020782A2800D11CE036
:1005D00020782E2803D148F00108641C09E0207817
:1005E000392802DC2078302803DA4FF00009002691
:1005F0000BE018F0010F02D0701CC6B203E009F145
:10060000010000F0FF09641CD5E700BF18F0020FDD
:1006100000D07F1C00250EE0A9F10100401BC1B2F3
:100620000A20FFF7B1FF795D3039009A00FB012005
:100630000090681CC5B24D45EEDB052E00DD052699
:100640000298067000250EE0701E401BC1B20A2001
:10065000FFF79AFF09F101012944795C303900FB69
:1006600001BB681CC5B2B542EEDB31460A20FFF77C
:100670008BFF009901FB00BA18F0020F01D0CAF1FC
:10068000000A5046BDE8FE8F0246134610E010787F
:100690002A2805D01078202802DB10787A2801DD7E
:1006A000FF20704710782C2801D1481EC1B2521C7F
:1006B0000029ECD1D01AC0B2F3E7F8B504460D46D4
:1006C00098A1284601F09EF9064602213046FFF720
:1006D000DBFF0746FF2F05D0F0196946FFF75FFFE4
:1006E00084F86A00F8BD2DE9F04F85B004468846CD
:1006F0008EA1404601F086F9064603213046FFF7F9
:10070000C3FF0546FF2D45D0701904A9FFF747FF29
:1007100007469DF81000801CC1B20A20FFF734FF85
:10072000B7FBF0F044F85E0F9DF81000801CC1B2DA
:100730000A20FFF729FFB7FBF0F100FB117A5046C2
:1007400001F044FA81469DF81000C0F10500C1B2E5
:100750000A20FFF719FF009001F038FA8346494656
:1007600001F0BEF98246734901F0F0F905210290CB
:100770000A20FFF709FF216800FB01FA504601F04B
:1007800025FA0190029901F053F9039001F023FA40
:1007900044F85E0904213046FFF776FF0546FF2D39
:1007A00002D0705D84F8620005213046FFF76CFFCF
:1007B0000546FF2D45D0701904A9FFF7F0FE074646
:1007C0009DF81000801CC1B20A20FFF7DDFEB7FBC8
:1007D000F0F044F8630F9DF81000801CC1B20A20AD
:1007E000FFF7D2FEB7FBF0F100FB117A504601F0A3
:1007F000EDF981469DF81000C0F10500C1B20A2054
:10080000FFF7C2FE009001F0E1F98346494601F08E
:1008100067F98246474901F099F9052102900A20BB
:10082000FFF7B2FE216800FB01FA504601F0CEF955
:100830000190029901F0FCF8039001F0CCF944F822
:10084000630906213046FFF71FFF0546FF2D02D042
:10085000705D84F8670005B0BDE8F08FF8B5054617
:100860000F4635A1384601F0CDF806460621304640
:10087000FFF70AFF0446FF2C05D030196946FFF741
:100880008EFE85F8680007213046FFF7FDFE04461E
:10089000FF2C05D030196946FFF781FE85F8690005
:1008A000F8BD2DE9F84304460D46A84624A140466C
:1008B00001F0A8F8064603213046FFF7E5FE07469B
:1008C000FF2F05D0F0196946FFF769FE84F85D0037
:1008D000BDE8F88370B505460C4619A1204601F025
:1008E00091F818B121462846FFF7DBFF12A12046F8
:1008F00001F088F818B121462846FFF7AFFF12A192
:10090000204601F07FF818B121462846FFF7EBFE9C
:1009100004A1204601F076F818B121462846FFF7D9
:10092000CCFE70BD24475047534100004750524D04
:100930004300000000007042244750474741000038
:100940002447504753560000244750524D4300005F
:1009500010B504460BE000BF4021474800F0E6FF19
:100960000028F9D02178444800F072FF641C2078F8
:100970000028F0D110BD00B585B00121042000F0A1
:10098000C3FD0121480400F0CCFD0420ADF81000A7
:1009900018208DF8130003208DF8120004A93748A1
:1009A00000F000FB0820ADF8100004208DF81300C3
:1009B00004A9324800F0F6FA4FF4165000900020D7
:1009C000ADF80400ADF80600ADF80800ADF80C0075
:1009D0000C20ADF80A006946274800F040FE0122CD
:1009E00040F22551244800F0D2FE0121224800F0B7
:1009F000C2FE05B000BD08B54FF4E06000F004FA97
:100A000026208DF8000001208DF8010000208DF8CF
:100A1000020001208DF80300684600F0FAF908BDD5
:100A200010B540F22551144800F096FF10B312485B
:100A3000001D0088C4B2242C05D101201049087083
:100A40000020104908600E480078012812D10E4895
:100A50000C49096844540B480068401C0949086067
:100A60000A2C07D1012009490870002005490860B7
:100A70000349087010BD0000004400400008014018
:100A800008000020040000201702002009000020B8
:100A900010B504460BE000BF40215E4800F046FF61
:100AA0000028F9D021785B4800F0D2FE641C207841
:100AB0000028F0D110BD00B585B0012144F204003A
:100AC00000F022FD4FF40070ADF8100018208DF8F2
:100AD000130003208DF8120004A94F4800F062FAB9
:100AE0004FF48060ADF8100004208DF8130004A9C5
:100AF000494800F057FA4FF4165000900020ADF826
:100B00000400ADF80600ADF80800ADF80C000C20AC
:100B1000ADF80A0069463F4800F0A1FD012240F20D
:100B200025513C4800F033FE01213A4800F023FEF5
:100B300005B000BD08B54FF4E06000F065F9252070
:100B40008DF8000001208DF801008DF802008DF86D
:100B50000300684600F05DF908BD10B540F225516C
:100B60002C4800F0F9FE98B12A48001D0088C4B254
:100B70002A482B49096844540A2C04D129480068A2
:100B8000401C2849086026480068401C2449086029
:100B900010BD70B59AB005460026002400202049FB
:100BA000086008460068204908601A21194800F0CA
:100BB0004FFE00201A4908601B4908601BA0FFF780
:100BC00067FF4FF4FA70FFF7AEFC00BF04E0134874
:100BD000005D01A90855641C114800688442F6D3E1
:100BE00015A101A801F0F2FA002085F863000024A5
:100BF0000CE001A8005D302807DD01A8005D392860
:100C000003DA01A8005DA855761C641C632CF0D3A0
:100C10001AB070BD003801400008014017060020DE
:100C200010000020140000201800002041542B4721
:100C3000534E0D0A000000006C656E3A0000000083
:100C400000210020674A126842F48032654B1A6026
:100C500000BF644A126802F40030491C10B9B1F5B3
:100C6000A06FF6D15F4A126812F4003F01D0012054
:100C700000E00020012842D15B4A126842F01002D5
:100C8000594B1A601A46126822F003021A601A467B
:100C9000126842F002021A60524A5268514B5A607E
:100CA0001A4652685A601A46526842F480625A6084
:100CB0001A46526822F47C125A601A46526842F46C
:100CC000E8125A601A46126842F080721A6000BF39
:100CD000444A126812F0007FFAD0424A526822F069
:100CE0000302404B5A601A46526842F002025A60B0
:100CF00000BF3C4A526802F00C02082AF9D1704742
:100D000010B5FFF79DFF10BD10B53648006840F0E4
:100D100001003449086008464068344908403149B8
:100D2000486008460068324908402E490860084675
:100D3000006820F4802008600846406820F4FE0027
:100D400048604FF41F008860FFF7DAFF4FF0006043
:100D50002849086010BD10B5002100200022214B59
:100D60005B6803F00C0121B1042906D0082928D1C1
:100D700007E0214B214C236027E01F4B1F4C2360D1
:100D800023E0184B5B6803F47010164B5B6803F4A8
:100D90008032022303EB904022B9194B4343174C96
:100DA00023600DE00F4B5B6813F4003F04D0144B3D
:100DB0004343124C236003E00F4B43430F4C23602B
:100DC00003E00D4B0D4C236000BF00BF054B5B687B
:100DD000C3F303130B4CE15C084B1B68CB40074C7F
:100DE000236010BD00100240002002400000FFF808
:100DF000FFFFF6FE08ED00E000127A002000002060
:100E000000093D002400002031490143314A1160AE
:100E1000704770B5002100230F22C4780CB32D4C0D
:100E2000246804F4E064C4F5E064210AC1F1040319
:100E3000CA40447804FA03F184781440214309013C
:100E4000254C0678A155047804F01F050124AC4018
:100E500005786D114FF0E02606EB8505C5F80041D9
:100E600009E0047804F01F050124AC401B4D06780E
:100E7000761145F8264070BD194A0A400243154BC9
:100E80001B1F1A60704739B1124A121D12680243C3
:100E9000104B1B1D1A6006E00E4A121D1268824399
:100EA0000C4B1B1D1A607047042808D14FF0E0213D
:100EB000096941F004014FF0E022116107E04FF0B1
:100EC000E021096921F004014FF0E022116170472F
:100ED0000000FA050CED00E000E400E080E100E035
:100EE00080FFFF1F10B50446CA48844208D1012183
:100EF000042000F023FB0021042000F01FFB46E04B
:100F0000C548844208D10121082000F017FB0021C8
:100F1000082000F013FB3AE0C048844208D10121C8
:100F2000102000F00BFB0021102000F007FB2EE04A
:100F3000BB48844208D10121202000F0FFFA0021A3
:100F4000202000F0FBFA22E0B648844208D10121BB
:100F5000402000F0F3FA0021402000F0EFFA16E004
:100F6000B148844208D10121802000F0E7FA002135
:100F7000802000F0E3FA0AE0AC48844207D1012166
:100F8000801500F0DBFA0021A01500F0D7FA10BDA3
:100F900010B50121084600F0D1FA0021012000F02F
:100FA000CDFA10BD2DE9F0410246002500260020B3
:100FB00000230024002791F803C00CF00F0591F8DE
:100FC00003C01CF0100F03D091F802C04CEA0505D5
:100FD00091F800C0BCF1000F31D0146800202BE064
:100FE0004FF0010C0CFA00F3B1F800C00CEA030654
:100FF0009E4220D183004FF00F0C0CFA03F7BC4344
:1010000005FA03FC4CEA040491F803C0BCF1280F74
:1010100006D14FF0010C0CFA00FCC2F814C00AE033
:1010200091F803C0BCF1480F05D14FF0010C0CFA48
:1010300000FCC2F810C0401C0828D1D31460B1F8DD
:1010400000C0BCF1FF0F34DD546800202EE000F139
:10105000080C4FF0010808FA0CF3B1F800C00CEAD4
:1010600003069E4221D183004FF00F0C0CFA03F7C8
:10107000BC4305FA03FC4CEA040491F803C0BCF13C
:10108000280F05D100F1080C08FA0CF8C2F81480FA
:1010900091F803C0BCF1480F07D100F1080C4FF0E4
:1010A000010808FA0CF8C2F81080401C0828CED3BA
:1010B0005460BDE8F0814FF6FF710180022181701C
:1010C0000421C17070470246002093680B4201D092
:1010D000012000E0002070470146886880B2704718
:1010E00002460020D3680B4201D0012000E000201E
:1010F00070470146C86880B270470161704741611E
:1011000070470AB1016100E041617047C1607047FA
:101110004FF480320A43826181618261826982690F
:10112000704702460020424B18684FF68073184003
:1011300040EA021008433E4B186070473D49C861C1
:101140007047F0B50A46002300240021002500F076
:101150000046B6F1004F02D1354EF16901E0344E40
:101160007168C0F3034583B200F44016B6F5401F22
:1011700008D121F070612E4E766826F070662C4FF3
:101180007E6012E000F48016B6F5801F06D10326BB
:1011900006FA05F4A14341F0706106E0460D360100
:1011A00003FA06F6B14341F0706122B1460D3601F3
:1011B00003FA06F6314300F00046B6F1004F02D1C3
:1011C0001B4EF16101E01A4E7160F0BD30B5002296
:1011D0008B071C0F0F2303FA04F2154B08338C10F6
:1011E00053F824309343124C08348D1044F82530C2
:1011F00023468C1053F824308C07240F00FA04F493
:1012000023430B4C08348D1044F8253030BD0A4977
:101210000860704700080140000C014000100140C8
:101220000014014000180140001C01400020014052
:101230000000014000002042DC002042DB48006842
:1012400040F00100D949086008464068D849084084
:10125000D649486008460068D6490840D349086026
:101260000846006820F4802008600846406820F4A2
:10127000FE0048604FF41F0088607047CB49096842
:1012800021F48031C94A11601146096821F4802196
:101290001160B0F5803F03D0B0F5802F0ED106E08D
:1012A000C249096841F48031C04A116007E0BF4972
:1012B000096841F4A021BD4A116000E000BF00BFF1
:1012C000704710B501460022002300204A11012A70
:1012D00002D1B64C236806E0022A02D1B34C236A3D
:1012E00001E0B24C636A01F01F02012494401C42E9
:1012F00001D0012000E0002010BD70B500240025C1
:10130000002600BF3120FFF7DCFF0646641CB4F561
:10131000A06F01D0002EF5D03120FFF7D2FF08B129
:10132000012500E00025284670BD014600209F4AA7
:10133000106820F0F80040EAC100106070479E4934
:101340000860704702460020984B586820F47C10D3
:1013500042EA01031843954B586070479649086666
:10136000704701460020914A506820F0030008436E
:10137000506070478D48406800F00C00704701468F
:1013800000208A4A506820F0F000084350607047FF
:1013900001460020854A506820F4E0600843506010
:1013A000704701460020814A506820F4605040EAAE
:1013B000C1005060704729B17C4A527A02437B4B8E
:1013C0005A7204E0794A527A8243784B5A727047D3
:1013D0007A490860704701460020744A506820F43A
:1013E00040400843506070470021754A11706F4AB1
:1013F00082F82010012802D0042808D103E001213E
:101400006F4A117004E005216D4A117000E000BFC1
:1014100000BF70476B49086070476449096A01431F
:10142000624A11627047674944390860704730B5B5
:1014300000210022002400235C4D6D6805F00C01A2
:1014400021B1042905D0082923D105E05E4D0560AE
:1014500022E05D4D05601FE0544D6D6805F470128B
:10146000524D6D6805F48034022505EB92421CB99B
:10147000564D554305600BE04C4D6D6815F4003F2B
:1014800003D0524D5543056002E04F4D5543056072
:1014900002E04D4D056000BF00BF444D6D6805F092
:1014A000F00109094A4D6B5C0568DD4045603F4D20
:1014B0006D6805F4E061090A454D6B5C4568DD40E7
:1014C00085603A4D6D6805F46051C90A404D6B5C0A
:1014D0004568DD40C560354D6D6805F44041890BB8
:1014E0003C4D6B5CC568B5FBF3F5056130BD29B1BA
:1014F0002E4A526902432D4B5A6104E02B4A52692D
:1015000082432A4B5A61704729B1284A92690243A3
:10151000264B9A6104E0254A92698243234B9A61E3
:10152000704729B1214AD2690243204BDA6104E0B5
:101530001E4AD26982431D4BDA61704729B11B4AAA
:10154000D2680243194BDA6004E0184AD268824339
:10155000164BDA60704729B1144A12690243134BE3
:101560001A6104E0114A12698243104B1A617047F4
:1015700014494039086070470F49C86470470B49E7
:10158000C87170470948406A40F080700749486256
:10159000704701460020054A92680A4201D00120A6
:1015A00000E0002070470149887270470010024037
:1015B0000000FFF8FFFFF6FE00004242D800424262
:1015C000201002408004424200127A0000093D00CF
:1015D000340000204400002010B50446FB4884423B
:1015E00009D101218803FFF7A9FF00214FF48040B2
:1015F000FFF7A4FF32E0F648844209D101214804F4
:10160000FFF7A9FF00214FF40030FFF7A4FF25E00A
:10161000F048844209D101218804FFF79CFF002192
:101620004FF48020FFF797FF18E0EB48844209D180
:101630000121C804FFF78FFF00214FF40020FFF7BE
:101640008AFF0BE0E548844208D101210805FFF735
:1016500082FF00214FF48010FFF77DFF10BD2DE9C0
:10166000F04786B005460E460024A24600BFA146BC
:101670000027B08900B100BF2F462C8A4CF6FF70BE
:101680000440F08804432C82AC894EF6F3100440E9
:10169000B08831890843718908430443AC81AC8A1E
:1016A0004FF6FF400440B0890443AC8201A8FFF725
:1016B000BEFEC648874202D1DDF810A001E0DDF889
:1016C0000CA0A88910F4004F08D00AEBCA0000EB68
:1016D0000A1031684900B0FBF1F807E00AEBCA00D4
:1016E00000EB0A1031688900B0FBF1F86420B8FB08
:1016F000F0F004012009642101FB1089A88910F48D
:10170000004F08D0322000EBC900B0FBF1F000F030
:101710000700044308E0322000EB09106421B0FB0D
:10172000F1F000F00F0004432C8106B0BDE8F08713
:101730004FF41651016000218180C18001810C218C
:10174000418100218181704710B502460020108A36
:101750004FF2FF0318400B884C8823438C882343A7
:10176000CC8823431843108210BD002101804180A2
:101770008180C180704721B1828942F40052828108
:1017800004E082894DF6FF731A4082817047F0B5FC
:1017900003460024002600250020A1F510676A3FBB
:1017A00000D100BF1846C1F3421401F01F06012703
:1017B00007FA06F5012C01D10C3004E0022C01D10E
:1017C000103000E014301AB107682F43076002E0C0
:1017D0000768AF430760F0BD1AB1838A0B43838269
:1017E00002E0838A8B4383827047028A4FF6F0734C
:1017F0001A400282028A0A430282704782894FF2AB
:10180000FF731A40828182890A438281704721B125
:10181000828942F00202828104E082894FF6FD73E0
:101820001A4082817047028A4FF6DF731A400282A3
:10183000028A0A430282704721B1028A42F480423E
:10184000028204E0028A4BF6FF731A40028270475C
:10185000C1F308028280704701468888C0F30800FF
:101860007047818941F0010181817047028BD2B2BA
:101870000283028B42EA012202837047028B02F448
:101880007F420283028B0A430283704721B1828A1E
:1018900042F02002828204E0828A4FF6DF731A400F
:1018A0008282704721B1828A42F01002828204E073
:1018B000828A4FF6EF731A408282704721B1828A82
:1018C00042F00802828204E0828A4FF6F7731A40DF
:1018D0008282704721B1828942F40042828103E012
:1018E0008289C2F30E028281704721B1828A42F45A
:1018F0000062828204E0828A4FF2FF731A40828281
:101900007047828A4FF6FB731A408282828A0A43AA
:101910008282704721B1828A42F00202828204E010
:10192000828A4FF6FD731A40828270470246002079
:10193000B1F5007F00D100BF13880B4201D0012018
:1019400000E00020704701F40072B2F5007F00D182
:1019500000BFCA430280704770B5024600240023CE
:1019600000250020A1F510666A3E00D100BFC1F33A
:10197000421501F01F03012606FA03F3012D02D1DF
:101980009689334006E0022D02D1168A334001E0E9
:10199000968A33400C12012606FA04F41688344065
:1019A00013B10CB1012000E0002070BD10B5002281
:1019B0000023A1F510646A3C00D100BF0A12012483
:1019C0009440A3B2DC43048010BD00000038014005
:1019D0000044004000480040004C004000500040DF
:1019E0000648804706480047FEE7FEE7FEE7FEE7B9
:1019F000FEE7FEE7FEE7FEE7FEE7FEE7090D00086B
:101A00003101000830B50EE003460A4601E05B1CD8
:101A1000521C1C781578AC4201D1002CF7D115F07E
:101A2000FF0F04D0401C0278002AEDD1002030BD09
:101A3000F0B480EA0102D40F4200B2EB410F02D2AF
:101A40000246084611464A0042D0C30DDDB2C1F33A
:101A5000C752AD1A202D35DAC1F3160141F4000248
:101A600004B15242C5F1200602FA06F12A4110449F
:101A7000B3EBD05F23D0C4B1012DA0EBC35009DC80
:101A8000F0BC4FF0004202EAC35200F50000DBB2A6
:101A900000F018B9400000F1807000EBC350A0F1D5
:101AA000807040EAD170490009E0490841EAC071FC
:101AB000A0EBC35000F50000400800EBC350F0BCA1
:101AC00000F0F7B86142012202EB4101001BF6E78A
:101AD000F0BC704781F00041AAE780F00040A7E722
:101AE00080EA010210B502F00043400026D04A000F
:101AF00023D04FEA106101EB1261C0F35600C2F32C
:101B0000560240F4000042F40002A0FB0220A1F1C2
:101B10007F014FEA0040140401D000F1010050EAB7
:101B2000124001D44000491EC2B20C0604EBD01092
:101B3000401C4008802A02D003E0002010BD20F0A5
:101B40000100002900DA0020184310BD30B480EAFB
:101B5000010202F0004530F0004221F0004015D0B3
:101B6000A0B1C0F3C753C2F3C754C2F31601C0F308
:101B70001600E41A41F4000140F400027D34914261
:101B800001D3641C00E04900002C02DA30BC0020C4
:101B900070474FF400000023914201D3891A034398
:101BA00040084FEA4101F7D151B1914202D14FF0C3
:101BB000004105E002D24FF0010101E06FF00101A8
:101BC00003EBC450284430BC00F073B896230022C5
:101BD000114600F077B820F00040C10DC0F31600A8
:101BE00040F400007F2901DA00207047962903DCC9
:101BF000C1F19601C840704796398840704700F09F
:101C0000004230F000400AD0C10D01F56071C0F310
:101C1000160042EA0151C2084007114370470020F4
:101C20000146704730B50B460146002020220124B2
:101C300009E021FA02F59D4205D303FA02F5491B9A
:101C400004FA02F52844151EA2F10102F1DC30BDB0
:101C50002DE9F05F0546002092469B4688460646E1
:101C6000814640241BE0284641464746224600F074
:101C70002CFA53465A46C01A914110D311461846C1
:101C8000224600F013FA2D1A67EB01084F46224650
:101C90000120002100F00AFA17EB00094E41201E36
:101CA000A4F10104DFDC484631462A464346BDE83C
:101CB000F09F0029A8BF7047401C490008BF20F0D2
:101CC0000100704710B4B0FA80FC00FA0CF050EA42
:101CD000010404BF10BC704749B1CCF1200421FAC3
:101CE00004F411FA0CF118BF012121430843A3EBBE
:101CF0000C01CB1D0106000A002BBEBF002010BC4A
:101D0000704700EBC35010440029A4BF10BC7047BB
:101D1000401C490008BF20F0010010BC70472DE9AD
:101D2000FE4F804681EA0300C00F0C46009021F070
:101D3000004123F00045B8EB0200A94105D240461E
:101D4000214690461C460B46024623F000401043B5
:101D500004D14046214603B0BDE8F08F270DC7F3FC
:101D60000A00C3F30A510290401A0190402866DA33
:101D7000C3F3130040F4801B0098924620B1002367
:101D8000D2EB030A63EB0B0B01985946C0F14002FA
:101D9000504600F08BF906460D4650465946019ACA
:101DA00000F0A3F910EB08006141002487EA11520A
:101DB00084EAE7731A433BD0009A3AB3019A012AA6
:101DC0004FEA075210DC001B61EB02014FF00042AA
:101DD00002EA0752CDE90042001C41F5801132466B
:101DE0002B4600F0A1F9B6E7001B61EB0201001CD5
:101DF00041F5801300185B412018A2F5001747EB4E
:101E0000030140EAD570B6196D4111E06D084FEA43
:101E1000360645EAC0754FEA0752001B61EB020126
:101E2000001C41F5801149084FEA3000001951416A
:101E300032462B4603B0BDE8F04F00F068B9009879
:101E4000012240000023D0EB020263EBE073009814
:101E500021464FEAE074B8EB000061EB0401E9E7CA
:101E600083F000435BE781F0004158E72DE9FE4F26
:101E700081EA030404F0004421F0004100944FF093
:101E8000000B23F0004350EA010402D052EA03049D
:101E900004D10020014603B0BDE8F08FC3F30A541B
:101EA000C1F30A552C44A4F2F3340194A0FB02546C
:101EB000C1F3130141F48011C3F3130343F48013FE
:101EC00001FB024400FB034E840A970A44EA815452
:101ED00047EA8357A4FB076802958D0A05FB07852F
:101EE0004FEA932C04FB0C542705029D4FEA065839
:101EF00047EA1637B5EB08056EEB070C870E920E16
:101F000047EA811742EA8312A7FB0201B6EB0B01F5
:101F100064EB00042B0D43EA0C335E1844EB1C50B9
:101F2000DA465146E7FB0201C5F313044FEA0B33CF
:101F300043EA14534FEA0432019C43EA0603A4F136
:101F40000C040294009CCDE900B400F0EDF8A2E787
:101F50002DE9F04D81EA030404F0004B21F0004527
:101F600014464FF0000A23F0004150EA050220D049
:101F700054EA01021DD0C5F30A570246C5F3130304
:101F8000C1F31300C1F30A5640F4801543F48013E3
:101F9000A7EB0608101BD64608F2FD3873EB0500C8
:101FA00002D308F1010801E092185B41B8F1000F7B
:101FB00003DA00200146BDE8F08D00204FF48011C7
:101FC000064684460EE0171B73EB050705D3121B6C
:101FD00063EB050306434CEA010C49084FEA300065
:101FE00092185B4150EA0107EDD152EA030012D08A
:101FF00082EA040083EA0501084303D100224FF07E
:10200000004308E0101BAB4102D20122002302E092
:102010006FF0010253101AEB06004CEB085110EB65
:102020000A0041EB0B01BDE8F04D00F070B8C1F3C0
:102030000A52C1F3130140F2FF3341F480119A4276
:1020400002DA00200146704740F233439A42A2F27E
:10205000334202DC524200F038B800F027B80000EA
:1020600030B5002904DB4FF00044404264EB01012D
:10207000002B04DB4FF00044524264EB030399420F
:1020800008BF904230BD0000064C074D06E0E068F6
:1020900040F0010394E8070098471034AC42F6D3AF
:1020A000FEF74AF8C02A0008E02A0008202A04DBCC
:1020B000203A00FA02F1002070479140C2F120035B
:1020C00020FA03F3194390407047202A04DB203A9A
:1020D00021FA02F00021704721FA02F3D040C2F148
:1020E00020029140084319467047202A06DBCB178F
:1020F000203A41FA02F043EAE07306E041FA02F3C3
:10210000D040C2F12002914008431946704710B5F3
:10211000002B08DA401C41F1000192185B411A4380
:1021200001D120F0010010BD2DE9F04D92469B46F3
:1021300011B1B1FA81F202E0B0FA80F22032904699
:10214000FFF7B4FF04460F4640EA0A0041EA0B01DC
:1021500053465A46084303D120463946BDE8F08D20
:10216000114653EA010015D0C8F140025046FFF76E
:10217000ACFF05460E46504659464246FFF796FFCD
:10218000084301D0012000E00020054346EAE07644
:102190002C4337430A984FEA4453A0EB08004FEA18
:1021A000D4240A304FF0000244EA47544FEAD725BE
:1021B00002D500200146D1E7010510196941DDE98A
:1021C000084500196941BDE8F04DA0E70FB4084B80
:1021D00010B504A902AA039800F0CAF8044602A99F
:1021E000002000F068FC204610BC5DF814FB0000E5
:1021F000B72A000802E008C8121F08C1002AFAD155
:1022000070477047002001E001C1121F002AFBD176
:10221000704700002DE9FF5FDDE90220010DDDF8C8
:1022200038B0024310D10F9801244CA2012808D0E5
:10223000002100980F9BC0E90021C0E90243BDE8DE
:10224000FF9F6FEA0B01F4E7A1F2FF3144F6105053
:1022500041430D140F9801280ED0A5EB0B00401C34
:102260004FF000043E4EDFF8FC90B0F1000AA046AB
:1022700005DACAF1000717E0CBF10000F0E70746E6
:1022800012E0F80707D02246334640464946FFF79A
:10229000EDFD804689462246334610461946FFF733
:1022A000E5FD04460E467F10002FEAD1DDE902016C
:1022B000BAF1000F42464B4602DAFFF7D7FD01E0C4
:1022C000FFF746FE04460E460022274BFFF7C8FEE6
:1022D00003D84FF0FF30014607E00022234B204691
:1022E0003146FFF71CFDFFF7A2FE102409E0002C89
:1022F0000ADB0A220023FFF7ABFC019B30321A55A0
:10230000641E50EA0102F2D1641C019AC4F1110367
:1023100014440F9A012A09D00122084301D15B45D8
:102320000FDD4FF0000205F101050DE0084303D178
:10233000A3EB0B056D1E09E000204FF0110B0F9071
:1023400088E701DA00226D1E002A83D000980F99D9
:10235000C0E90231C0E9004571E70000300000002B
:10236000000024400000F03F0000F0430000E03F88
:102370002DE9FF4F95B09B4689460646002512E29F
:10238000252878D10024761CF94A27460121059496
:102390003378203B01FA03F0104202D00443761C4C
:1023A000F6E730782A2811D06FF02F033078A0F1AB
:1023B0003002092A16D8059A44F0020402EB820280
:1023C00003EB42021044761C0590EFE759F8042B0A
:1023D0000592002A03DA504244F40054059044F078
:1023E0000204761C30782E2816D116F8010F44F01E
:1023F00004042A280DD06FF02F023078A0F13003AA
:10240000092B09D807EB870302EB4303C718761C97
:10241000F3E759F8047B761C30786C280FD006DC83
:102420004C2817D068280DD06A2814D104E07428ED
:1024300010D07A280FD10DE044F400140AE044F4DF
:10244000801401E044F440147278824202D1761C78
:1024500004F58014761C307866280BD013DC5828DD
:1024600077D009DC002875D04528F6D04628F4D06E
:1024700047281AD19FE118E0632835D0642879D025
:10248000652812D197E1702873D008DC6728F1D055
:1024900069286FD06E280DD06F2806D1B5E073285B
:1024A0002CD0752875D0782874D05A461799904743
:1024B0006D1C76E1C4F30250022809D003280DD028
:1024C000D9F8001004280DD00D6009F1040968E165
:1024D000D9F80010EA17C1E90052F6E7D9F8001060
:1024E0000D80F2E70D70F0E719F8041B8DF800106D
:1024F00000208DF80100EA46012003E059F804AB02
:102500004FF0FF3061074FF0000102D40DE008F1F9
:1025100001018846B9420FDA8045F8DB1AF8081045
:102520000029F4D108E008F1010188468142FADB74
:102530001AF808100029F6D105985B46A0EB0807A9
:1025400021463846179A00F09EFA284400EB080509
:1025500007E04DE02BE10DE01AF8010B5A46179900
:102560009047B8F10108F7D25B4621463846179AE2
:1025700014E142E00A220092C4F302524FF0000A32
:10258000022A08D059F804CB032A4FEAEC710AD08A
:102590000DE029E02AE009F1070121F00702F2E845
:1025A00002C1914609E00FFA8CFC4FEAEC71042A53
:1025B00003D14FFA8CFC4FEAEC71002907DA0A4686
:1025C0000021DCF1000C61EB02012D2202E022056A
:1025D00004D52B228DF80420012203E0E20701D06C
:1025E0002022F7E7904653E00A2102E010220DE096
:1025F00010214FF0000A00910BE010224FF0000A6A
:1026000044F004040827009203E008224FF0000A77
:102610000092C4F30252022A05D059F804CB0021DB
:10262000032A08D009E009F1070121F00702F2E8C6
:1026300002C1914605E01FFA8CFC042A01D10CF07E
:10264000FF0C4FF00008220722D5702827D0009BEE
:1026500083F0100353EA0A0309D15CEA010206D0B1
:1026600030228DF804208DF8050002229046009B50
:1026700083F0080353EA0A030AD15CEA010201D19C
:10268000620705D530228DF804204FF001087F1E27
:10269000582809D037A003900EA8029013E04022DA
:1026A0008DF804200122E1E737A0F4E753466046A5
:1026B000009AFFF7CDFA84460398825C0298A0F155
:1026C0000100029002705CEA0100EFD1029806A9B5
:1026D000A1EB000000F1200A600702D524F4803449
:1026E00000E00127574502DDA7EB0A0000E00020CB
:1026F00000EB0A01009005984144A0EB0100059011
:10270000E00306D45B462146179A059800F0BBF912
:102710000544002706E001A85A46C05D1799904776
:102720006D1C7F1C4745F6DBE0030CD55B4621465C
:10273000179A059800F0A7F9054404E030205A469E
:10274000179990476D1C0099481E00900029F5DCF0
:1027500008E0029802995A460078491C029117999C
:1027600090476D1CBAF10001AAF1010AF1DC6BE19E
:102770000928010030313233343536373839616257
:10278000636465660000000030313233343536371B
:1027900038394142434445460000000000F060F9EA
:1027A000054406F10106307800287FF4E9AD19B040
:1027B0002846BDE8F08F620700D4062709F107021A
:1027C00022F0070CFCE80223E14603F000485FEA30
:1027D000080C02D00FF27C2C0DE05FEA045C02D5FD
:1027E0000FF2742C07E05FEAC47C02D00FF26C2C6D
:1027F00001E0AFF2700C4FF0FF3823F00043CDF84A
:1028000050C065280CD006DC452809D046281DD0CC
:1028100047283ED13EE0662818D0672839D139E0F4
:102820000021112F01DB112000E0781CCDE900010F
:1028300006A90EA8FFF7EEFCDDE90F010E9A039141
:102840000021009207F1010A04914EE04FF0004090
:102850000097CDE9011006A90EA8FFF7DBFCDDE922
:102860000F0203920E9B11990022DDF80CA0009339
:10287000049219B907F1010100EB010AB7EB0A0054
:1028800004D4C0F1FF3007F1010A0490AAEB07005D
:10289000019046E0012F00DA01270021112F01DD10
:1028A000112000E03846CDE9000106A90EA8FFF787
:1028B000B1FCDDE90F010E9A039100210491009211
:1028C000BA4621070CD40399514500DA8A46BAF179
:1028D000010F05DD009AAAF10101515C302908D0F1
:1028E000B84202DA10F1040F06DA0121CDE9011035
:1028F00017E0AAF10101E9E7002805DC0499014489
:102900000491AAEB000102E0411C514500DD8A461A
:102910000499A0EB010000F1010001904FF000408C
:102920000290200704D40198504501DBCDF80480C3
:1029300000208DF84F0002980DF14F07B0F1004FC5
:1029400025D02B200E9002984FF0020800280CDAB8
:10295000404202902D200E9007E00A210298FFF7D6
:1029600061F93031029007F8011DB8F10001A8F1BA
:102970000108F2DC02980028EFD1791E0E98087049
:10298000307800F0200040F0450007F8020D12A852
:10299000A0EB070000F107081498007800B10120AF
:1029A00000EB0A01019801EBE07105984144A0EBAE
:1029B0000100A0F101000590E00306D45B4621462A
:1029C000179A059800F05FF805441498007820B134
:1029D0005A461799904705F10105E00323D55B4658
:1029E0002146179A059800F04EF805441BE004981C
:1029F000002807DB0399814204DD04990098405CBC
:102A0000179901E0179930205A46904704986D1C99
:102A1000401C04900198401E019004D12E205A467B
:102A2000179990476D1CBAF10001AAF1010ADEDC8A
:102A300005E017F8010B5A46179990476D1CB8F13D
:102A40000001A8F10108F4DC5B462146179A0598BD
:102A5000A4E600002D0000002B0000002000000074
:102A60002DE9F041044600251E461746880405D48A
:102A700006E039462020B04705F10105641EF8D56F
:102A80002846BDE8F0812DE9F041044600251E46A8
:102A90009046C80301D5302700E02027880405D5DB
:102AA00006E041463846B04705F10105641EF8D5F9
:102AB0002846BDE8F0810A68531C0B60107070470F
:102AC000E02A00080000002048000000F42100086F
:102AD000282B000848000020D00A0000042200082B
:102AE00000000000000000000000000000000000E6
:102AF00000000000000000000000000000000000D6
:102B000000A24A04000000000000000001020304CB
:102B10000607080900000000010203040102030483
:082B200006070809020406087B
:0400000508000131BD
:00000001FF
